:020000040800F2
:10000000684500209D01000853080008C907000842
:100010004F08000819060008271600080000000015
:1000200000000000000000000000000005010008C2
:100030001D06000800000000490100081D0F00080F
:10004000B7010008B7010008B7010008B7010008B0
:10005000B7010008B7010008B7010008B7010008A0
:10006000B7010008B7010008B7010008B701000890
:10007000B7010008B7010008B7010008B701000880
:10008000B7010008B7010008B7010008B701000870
:10009000B7010008B7010008B7010008B701000860
:1000A000B7010008B7010008B7010008B701000850
:1000B000B7010008810F0008B7010008B701000868
:1000C000B7010008B7010008B7010008B701000830
:1000D000B7010008C51200084D130008D913000825
:1000E000B7010008B7010008B7010008DFF810D019
:1000F00000F0F8F9004800477D190008AFF30080D0
:1001000068450020224B19680868B0E8F00F80F3BA
:100110000988BFF36F8F4FF0000080F311884EF015
:100120000D0E70470000000006480068006880F36C
:10013000088862B661B6BFF34F8FBFF36F8F00DFE1
:1001400000BF00BF08ED00E0EFF30980BFF36F8F41
:100150000F4B1A6820E9F00F106008B54FF05000FF
:1001600080F31188BFF34F8FBFF36F8F02F08AFEC9
:100170004FF0000080F31188BDE808401968086856
:10018000B0E8F00F80F30988BFF36F8F704700BFAE
:1001900078000020EFF30580704700000648804794
:1001A00006480047FEE7FEE7FEE7FEE7FEE7FEE75C
:1001B000FEE7FEE7FEE7FEE7210F0008ED0000087E
:1001C00040EA01039B0703D009E008C9121F08C0D9
:1001D000042AFAD203E011F8013B00F8013B521E59
:1001E000F9D27047D2B201E000F8012B491EFBD2D0
:1001F00070470022F6E710B513460A460446194632
:10020000FFF7F0FF204610BDF0B480EA0102D40FE2
:100210004200B2EB410F02D20246084611464A00A4
:1002200042D0C30DDDB2C1F3C752AD1A202D35DA6D
:10023000C1F3160141F4000204B15242C5F1200697
:1002400002FA06F12A411044B3EBD05F23D0C4B1C7
:10025000012DA0EBC35009DCF0BC4FF0004202EAD4
:10026000C352DBB200F5000000F00DB9400000F110
:10027000807000EBC350A0F1807040EAD17049005B
:1002800009E0490841EAC071A0EBC35000F5000045
:10029000400800EBC350F0BC00F0ECB86142012212
:1002A00002EB4101001BF6E7F0BC704781F0004112
:1002B000AAE780F00040A7E780EA010210B502F04B
:1002C0000043400022D04A001FD0010E01EB126112
:1002D000C0F35600C2F3560240F4000042F400029C
:1002E000A0FB022000047F39140400D0401C50EA17
:1002F000124001D44000491EC2B20C0604EBD010DB
:10030000401C4008802A02D003E0002010BD20F0ED
:100310000100002900DA0020184310BD30B480EA43
:10032000010202F0004530F0004221F0004013D0FD
:1003300090B1C30DD40DC2F31601C0F31600E41A38
:1003400041F4000140F400027D34914201D3641C69
:1003500000E04900002C02DA30BC002070474FF466
:1003600000000023914201D3891A034340084FEA59
:100370004101F7D151B1914202D14FF0004105E066
:1003800002D24FF0010101E06FF0010103EBC45014
:10039000284430BC00F06EB8C10F80EAE070084419
:1003A000CA079623002100F06EB800F0004220F04A
:1003B0000040C10DC0F3160040F400007F2901DAAF
:1003C00000207047962903DCC1F19601C84001E086
:1003D00096398840002AF4D04042704700F000422D
:1003E00030F000400AD0C10D01F56071C0F3160075
:1003F00042EA0151C20840071143704700200146FC
:100400007047000030B5041E71F1000404DB4FF0AA
:100410000044404264EB0101141E73F1000405DB4B
:100420001C464FF00043524263EB04038B4208BF6B
:10043000824230BD002801DBC0F10040002901DB11
:10044000C1F100418842704730B50B46014600209B
:100450002022012409E021FA02F59D4205D303FA86
:1004600002F5491B04FA02F52844151EA2F1010207
:10047000F1DC30BD0029A8BF7047401C490008BF0F
:1004800020F00100704710B4B0FA80FC00FA0CF0C4
:1004900050EA010404BF10BC704749B1CCF12004FC
:1004A00021FA04F411FA0CF118BF01212143084389
:1004B000A3EB0C01CB1D4FEA00614FEA102042BFB5
:1004C000002010BC704700EBC35010440029A4BFAB
:1004D00010BC7047401C490008BF20F0010010BC50
:1004E00070470000064C074D06E0E06840F001034D
:1004F00094E8070098471034AC42F6D3FFF7FAFDB2
:10050000E03A0008003B00081CB5012402F0E4F9C1
:100510001348032100236202CDE9001011A1144801
:1005200003F06CF80446012C02D112A001F07EF811
:100530001748032100234FF40072CDE9001015A1E4
:10054000184803F05BF80446012C02D116A001F014
:100550006DF81C48006802F023FB02F0FDF91CBD99
:10056000280000205049445F5441534B00000000D4
:10057000090A0008B4B4BDA84C4544315F54617306
:100580006BC8CECEF1B3C9B9A6210D0A0000000098
:100590002C0000204C4F434154494F4E5F5441536F
:1005A0004B00000005080008B4B4BDA84C45443217
:1005B0005F5461736BC8CECEF1B3C9B9A6210D0AE1
:1005C000000000002400002010B54FF4407000F03F
:1005D00079F901F07DF94FF4E13002F037F84FF48A
:1005E000E13002F089F84FF4E13002F0D7F800F082
:1005F000EDF88F2142F20F7000F0DAFC40F2023188
:10060000044800F008FE40F20231024800F005FE06
:1006100010BD00000004004000BFFEE770472DE958
:10062000F041024600250026002000230024002778
:1006300091F803C00CF00F0591F803C00CF0100CFA
:10064000BCF1000F03D091F802C04CEA050591F807
:1006500000C0BCF1000F31D0146800202BE04FF037
:10066000010C0CFA00F3B1F800C00CEA03069E423C
:1006700020D183004FF00F0C0CFA03F7BC4305FAAE
:1006800003FC4CEA040491F803C0BCF1280F06D126
:100690004FF0010C0CFA00FCC2F814C00AE091F80B
:1006A00003C0BCF1480F05D14FF0010C0CFA00FC5F
:1006B000C2F810C0401C0828D1D31460B1F800C0A3
:1006C000BCF1FF0F34DD546800202EE000F1080C6F
:1006D0004FF0010808FA0CF3B1F800C00CEA030669
:1006E0009E4221D183004FF00F0C0CFA03F7BC435C
:1006F00005FA03FC4CEA040491F803C0BCF1280F8E
:1007000005D100F1080C08FA0CF8C2F8148091F831
:1007100003C0BCF1480F07D100F1080C4FF00108ED
:1007200008FA0CF8C2F81080401C0828CED3546098
:10073000BDE8F081F0B50A46002300240021002521
:1007400000F00046B6F1004F02D11D4EF16901E004
:100750001B4E7168C0F3034583B200F44016B6F532
:10076000401F08D121F07061154E766826F0706642
:10077000134F7E6012E000F48016B6F5801F06D19C
:10078000032606FA05F4A14341F0706106E0460D28
:10079000360103FA06F6B14341F0706122B1460D0D
:1007A000360103FA06F6314300F00046B6F1004F79
:1007B00002D1034EF16101E0014E7160F0BD000015
:1007C000000001400161704700BFFEE708B501214C
:1007D000102000F07DFA4FF40050ADF8000010201A
:1007E0008DF8030003208DF8020069460448FFF7E6
:1007F00016FF4FF400510248FFF7E4FF08BD000068
:100800000010014005E0C82001F084F801A000F0CC
:100810000DFFF8E74C4F434154494F4E5F5441534D
:100820004B0D0A00B0F5C87F01DC4FF4C870B1F57C
:10083000C87F01DC4FF4C87140F24C42904200DBAB
:10084000104640F24C42914200DB1146704700BF17
:10085000FEE7704770B5002100230F22C47804B36F
:10086000154C246804F4E064C4F5E064210AC1F185
:100870000403CA40447804FA03F184781440214305
:1008800009010E4C0678A155047804F01F050124D7
:10089000AC4005786D11AD0005F1E025C5F80041CB
:1008A00009E0047804F01F050124AC40044D0678EB
:1008B000761145F8264070BD0CED00E000E400E044
:1008C00080E100E002490143024A116070470000E4
:1008D0000000FA050CED00E010B504462E48007843
:1008E00070B9FF2C0CD101202B4908702B480178DE
:1008F0000078401C294A1070294820F811404AE02D
:100900002548007801280ED1FE2C0CD10220224966
:100910000870224801780078401C204A1070204856
:1009200020F8114037E01C480078022810D11B48FD
:1009300001780078401C194A1070194820F81140BD
:1009400010460078042826DB03201349087022E0B3
:1009500011480078032819D15B2C0FD100200E49D3
:1009600008700E4908700E4880880E4908800C48AF
:10097000C0880D49088000F053F80CE05B2C0AD0C9
:100980000020054908700549087004E0002002496C
:1009900008700249087010BD040000200500002006
:1009A000EC0000200000002002000020502011492F
:1009B00008603C204860104848611048C8611048F1
:1009C00088614FF07F508860002008610D48C86042
:1009D0000020086288624862C8624863086340F287
:1009E0000230086448640846006C88630846406C1E
:1009F000C8637047F80000209A9939400000B84158
:100A0000A69B443B6F12033C02E002A000F00EFEE6
:100A1000FBE700005049445F5441534B0D0A00006E
:100A20002DE9F05F96488088FD280BD19448C08856
:100A3000FD2807D19348006C924988630846406CB2
:100A4000C86314E18F4909688D4A9288881AFFF7B4
:100A5000A3FC8C4908628A49C9888A4A5268881A64
:100A6000FFF79AFC8749C8620A46116A906AFFF745
:100A7000CBFB05464FF08041FFF750FC044682480F
:100A800001682046FFF7C0FB7F4908607D4AD16AB4
:100A9000506BFFF7B9FB05464FF08041FFF73EFC76
:100AA00004467A4801682046FFF7AEFB77490860A4
:100AB0007449886975490968FFF7FEFB80467149EA
:100AC000486CFFF769FC81466E4A516BD06AFFF7AC
:100AD000EDFB83466B48C1695846FFF7EDFB0746BF
:100AE000684AD16A5069FFF7E7FB82463946FFF74B
:100AF0008BFB06464946FFF787FB05464146FFF755
:100B000083FB0446FFF751FC5E49C863C8685E4931
:100B10000968FFF7D1FB80465A49086CFFF73CFC97
:100B20008146584A916A106AFFF7C0FB83465548D0
:100B300001695846FFF7C0FB0546524A116A9068A2
:100B4000FFF7BAFB82462946FFF75EFB0646494699
:100B5000FFF75AFB04464146FFF756FB0746FFF7EF
:100B600024FC484988630846006A88620846C06ACF
:100B7000486347480088401C45490880084600886B
:100B8000B0F57A7F0BDA43493F480068FFF752FC23
:100B900005D340493D480068FFF74CFC23D23C4850
:100BA00001883DA000F042FD0020394908803D4900
:100BB00035480068FFF73EFC07D24FF080413248CD
:100BC0000068FFF7ABFB3049086036492F480068E2
:100BD000FFF730FC07D24FF080412C480068FFF748
:100BE0009DFB2A4908602749086AFFF7F7FB21F0B7
:100BF0000041044600222C4BFFF704FC03D221489D
:100C0000006C204988631F49C86AFFF7E7FB21F0A1
:100C1000004104460022244BFFF7F4FB03D219489D
:100C2000406C1849C8631748806B40F24C418842B9
:100C300002DD0846134988631248806BB0F5C87F0F
:100C400003DA4FF4C8700F4988630E48C06B40F256
:100C50004C41884202DD08460A49C8630948C06B16
:100C6000B0F5C87F03DA4FF4C8700649C863054879
:100C7000008F81B20D4800F0CEFABDE8F09F000071
:100C8000EC000020F8000020380000203C0000208C
:100C90004000002000803B45636F756E743D256405
:100CA0000000000000401C4500001440000400400B
:100CB00029B1064AD2690243044BDA6104E0034ACF
:100CC000D2698243014BDA61704700000010024094
:100CD00029B1064A92690243044B9A6104E0034A2F
:100CE00092698243014B9A617047000000100240F4
:100CF00030B500210022002400232D4D6D6805F041
:100D00000C0121B1042905D0082923D105E0294D82
:100D1000056022E0274D05601FE0254D6D6805F454
:100D20007012234D6D6805F48034022505EB924264
:100D30001CB9214D554305600BE01D4D6D6805F450
:100D400000351DB11C4D5543056002E0194D55435A
:100D5000056002E0174D056000BF00BF144D6D68CF
:100D600005F0F0010909154D6B5C0568DD40456033
:100D70000F4D6D6805F4E061090A104D6B5C456824
:100D8000DD4085600A4D6D6805F46051C90A0B4D60
:100D90006B5C4568DD40C560054D6D6805F44041FC
:100DA000890B074D6B5CC568B5FBF3F5056130BD7C
:100DB0000010024000127A0000093D004E000020A1
:100DC0005E00002070B504460D4604F2EE200C498A
:100DD000086005F2EE200B490860084601680848E3
:100DE0000068FFF71FFD0648008881B2064800F042
:100DF00012FA0448008881B2034800F00EFA70BD70
:100E000030000020340000200004004010B500F045
:100E100001F810BD0CB50020019000903348006827
:100E200040F480303149086000BF3048006800F469
:100E3000003000900198401C0190009818B901986A
:100E4000B0F5A06FF1D12948006800F4003010B16E
:100E50000120009001E0002000900098012843D17B
:100E60002348006840F010002149086008460068E7
:100E700020F0030008600846006840F002000860A7
:100E80001A48406819494860084640684860084662
:100E9000406840F4806048600846406820F47C1058
:100EA00048600846406840F4E8104860084600681A
:100EB00040F08070086000BF0C48006800F00070CF
:100EC0000028F9D00948406820F00300074948602D
:100ED0000846406840F00200486000BF0348406890
:100EE00000F00C000828F9D10CBD000000100240F1
:100EF00000200240042808D14FF0E021096941F0A8
:100F000004014FF0E022116107E04FF0E021096990
:100F100021F004014FF0E02211617047704700009A
:100F200010B51348006840F00100114908600846F8
:100F30004068104908400E494860084600680E495C
:100F400008400B4908600846006820F480200860CB
:100F50000846406820F4FE0048604FF41F00886097
:100F6000FFF754FF4FF000600449086010BD000017
:100F7000001002400000FFF8FFFFF6FE08ED00E061
:100F800010B50121074800F080F848B1012105485B
:100F900000F06CF804480068C0430449C1F8B4018B
:100FA00010BD000000040040B401224200002242B3
:100FB00030B589B005460C4601210220FFF778FEC6
:100FC00001210920FFF784FE01212448FFF7B2FB2D
:100FD00001212348FFF7AEFB3020ADF82000182098
:100FE0008DF8230003208DF8220008A91D48FFF783
:100FF00016FBADF81850ADF814400020ADF81A00FB
:10100000ADF8160005A9184800F00AF96020ADF8FF
:1010100004000120ADF806000020ADF80C0001A985
:10102000114800F043F808210F4800F0E7F860206D
:10103000ADF804000120ADF806000020ADF80C006A
:1010400001A9094800F088F80821074800F07AF85B
:101050000121054800F00DF809B030BD0002300054
:1010600000081A00000C014000040040CA4302823C
:10107000704721B1028842F00102028004E0028838
:101080004FF6FE731A400280704730B502460020CA
:1010900000230024158A05EA0103958905EA010465
:1010A00013B10CB1012000E0002030BD70B5002468
:1010B00000220023058C4FF6FE7635400584028C15
:1010C0008388048B4FF68F752C40B51E2C400D88FD
:1010D0002C43751E2A400D892A434D882A43144DFE
:1010E000A8420BD0134DA84208D0134DA84205D0FA
:1010F000124DA84202D0124DA84213D14FF6F775F7
:101100002A404D892A434FF6FB752A408D882A4391
:101110004FF6FF652B404FF6FF552B408D892B4333
:10112000CD892B4383800483CD888586028470BD5E
:10113000002C0140003401400040014000440140C7
:10114000004801400A460021018B4FF6F773194011
:10115000114301837047000070B500240022002372
:10116000058C4FF6EF7635400584028C8388048B1E
:1011700048F6FF752C404FF6FF452C400D884FF682
:10118000FF7606EA05252C434FF6DF752A400D89C8
:1011900006EA05152A434D8806EA05152A43154D2A
:1011A000A84202D0144DA8421DD14FF67F752A40A7
:1011B0004D894FF6FF7606EA05152A434FF6BF75AF
:1011C0002A408D8806EA05152A434FF6FF352B4045
:1011D0004FF2FF752B408D8906EA85052B43CD899B
:1011E00006EA85052B4383800483CD880587028426
:1011F00070BD0000002C0140003401400A4600216F
:10120000018B4FF2FF7319404FF6FF7303EA02237D
:10121000194301837047818670470187704700003A
:10122000002202881D4B98420ED01D4B98420BD0D5
:10123000B0F1804F08D01B4B984205D01A4B984212
:1012400002D01A4B984204D14FF68F731A404B8844
:101250001A43174B984207D0164B984204D04FF6CA
:10126000FF431A40CB881A4302808B8883850B8802
:1012700003850A4B98420BD0094B984208D00E4B7D
:10128000984205D00D4B984202D00D4B984201D1A7
:101290000B7A03860123838270470000002C0140F3
:1012A000003401400004004000080040000C0040F1
:1012B0000010004000140040004001400044014084
:1012C0000048014010B540F225511D4800F0EBF8F0
:1012D00010B31B4800F0A2F9C4B21A48008800F409
:1012E0000040C8B91748008800F4804060B10A2C5B
:1012F00003D000201349088020E01248008840F401
:1013000000401049088019E00D2C06D10D480088D6
:1013100040F480400B49088010E00A480088C0F380
:101320000D0009490C5407480088401C05490880F5
:1013300008460088C72801DD0020088010BD000095
:10134000003801404C0000204001002010B540F260
:1013500025511E4800F0A7F828B31C4800F05EF99C
:10136000C4B22046FFF7B8FA1948008800F40040DC
:10137000C8B91748008800F4804060B10A2C03D037
:1013800000201349088020E01148008840F4004004
:101390000F49088019E00D2C06D10D48008840F453
:1013A00080400B49088010E009480088C0F30D0018
:1013B00008490C5406480088401C05490880084626
:1013C0000088C72801DD0020088010BD00440040CF
:1013D0004C0000204001002010B540F22551234868
:1013E00000F061F800283FD0204800F017F92049AC
:1013F00008700846007801F0A9F81E48008800F43B
:10140000004088BB1B48008800F4804070B1184839
:1014100000780A2803D000201649088024E01548E7
:10142000008840F40040134908801DE0104800780F
:101430000D2806D10F48008840F480400D490880EF
:1014400012E00B4800780B490988C1F30D010A4AE4
:10145000505408480088401C064908800846008807
:10146000C72801DD0020088010BD000000480040B2
:10147000200000204C0000204001002021B1828982
:1014800042F40052828104E082894DF6FF731A40D3
:10149000828170471AB1838A0B43838202E0838A78
:1014A0008B438382704770B50246002400230025D9
:1014B000002040F66A16B14200D100BFC1F34215C8
:1014C00001F01F03012606FA03F3012D02D19689CC
:1014D000334006E0022D02D1168A334001E0968A9D
:1014E00033400C12012606FA04F41688344013B176
:1014F0000CB1012000E0002070BDF0B503460024CF
:1015000000260025002040F66A17B94200D100BF2E
:101510001846C1F3421401F01F06012707FA06F529
:10152000012C01D10C3004E0022C01D1103000E07C
:1015300014301AB107682F43076002E00768AF4311
:101540000760F0BD2DE9F04786B005460E46002441
:10155000A24600BFA1460027B08900B100BF2F46B8
:101560002C8A4CF6FF700440F08804432C82AC892E
:101570004EF6F3100440B08831890843718908435E
:101580000443AC81AC8A4FF6FF400440B089044369
:10159000AC8201A8FFF7ACFB1F48874202D1DDF8FF
:1015A00010A001E0DDF80CA0A88900F4004040B1D3
:1015B0000AEBCA0000EB0A1031684900B0FBF1F8F1
:1015C00007E00AEBCA0000EB0A1031688900B0FBA3
:1015D000F1F86420B8FBF0F004012009642101FB5C
:1015E0001089A88900F4004040B1322000EBC90006
:1015F000B0FBF1F000F00700044308E0322000EBFC
:1016000009106421B0FBF1F000F00F0004432C81BD
:1016100006B0BDE8F0870000003801400146888828
:10162000C0F30800704700BFFEE700000FB4054B91
:1016300010B503A9044A029800F018F810BC5DF830
:1016400014FB0000611900084800002002E008C8EF
:10165000121F08C1002AFAD170477047002001E02C
:1016600001C1121F002AFBD1704700002DE9FF4F76
:101670008BB09A460F460546002606E025280BD07B
:1016800052460D9990476D1C761C28780028F5D19C
:101690000FB03046BDE8F08F0024A046012260491B
:1016A00000E0044315F8013F203B02FA03F0084232
:1016B000F7D128782E2817D115F8010F44F004042B
:1016C0002A280ED06FF02F022878A0F130010929C6
:1016D0000AD808EB880102EB410100EB01086D1C00
:1016E000F2E757F8048B6D1C287869283ED006DC99
:1016F0000028CDD063280BD0642804D136E07328AD
:1017000010D075284BD052460D999047761C85E035
:1017100017F8040B8DF8000000208DF80100E94651
:10172000012003E057F8049B4FF0FF3061074FF0B2
:10173000000401D40AE0641C44450DDA8442FADB5B
:1017400019F804100029F6D106E0641C8442FCDB81
:1017500019F804100029F8D1264404E019F8010B07
:1017600052460D999047641EF8D257E001CF4FF0D2
:101770000A0B002802DA40422D2102E0210504D59F
:101780002B218DF82410012103E0E10705D0202151
:10179000F7E70DF1200908910CE00021F9E701CFEE
:1017A0004FF00A0BF9E75946FEF74EFE01F1300201
:1017B00009F8012D0028F6D1ADEB090000F1200B4E
:1017C000600701D44FF00108D84502DDA8EB0B00FB
:1017D00000E000208046002406E009A85246005D93
:1017E0000D999047641C761C08988442F5DB04E050
:1017F000302052460D999047761CB8F10001A8F1AF
:101800000108F5DC05E019F8010B52460D999047E7
:10181000761CBBF10001ABF1010BF4DC6D1C34E76D
:101820000928010010B526484078012805D150202C
:10183000244908603C20486041E021488078012824
:1018400008D114201F4908603C20486000201C4932
:10185000887034E01A48C07801280DD11A48006811
:101860000A3819490860084601680020FFF7AAFAFB
:1018700000201349C87022E01148007901280DD1D9
:10188000124800680A381149086000210F480068B2
:10189000FFF798FA00200A49087110E008484079DB
:1018A00001280CD1094800680A3008490860002165
:1018B00006480068FFF786FA00200149487110BD0C
:1018C00010000020F8000020180000201C0000205C
:1018D00010B56FF00400FFF70DFB0A4800680A49D5
:1018E000B0FBF1F0094908700846007800EB4001B0
:1018F000C1EBC0104FF6FF7101EAC0000449088037
:1019000010BD00006400002000127A004200002098
:10191000440000200146114A12884A434FF0E02358
:101920005A6100229A611A46126942F001021A6154
:1019300000BF4FF0E022106900F001021AB100F47C
:101940008032002AF5D04FF0E022126922F0010225
:101950004FF0E0231A6100229A6170474400002092
:1019600000BF054A128802F04002002AF9D0C2B234
:10197000014B1B1D1A807047003801401CB5012423
:10198000FEF722FEFFF712F80A48022100230A029E
:10199000CDE9001008A10C4801F030FE0446012CEE
:1019A00002D101F00FFA02E04FF0FF301CBD00BF82
:1019B000FEE70000240000204170705461736B4307
:1019C0007265617465000000090500082DE9F041A9
:1019D00005460E461C4807681C480068001D00F0BC
:1019E00031FF50B91948006890F82C100120884048
:1019F00017490968814316480160681C38B936B137
:101A000012480168091D134800F05AFF1AE07C19BA
:101A10000E4800684460BC4207D20C480168091DAA
:101A20000D48006800F032FF0CE008480168091D0D
:101A30000A48006800F02AFF09480068844201D281
:101A400007480460BDE8F0818C0000207800002089
:101A50009000002028050020800000207C0000204D
:101A6000A800002010B5044600F036FF23480068A7
:101A7000401C224908602248006840B920480460A0
:101A80000846006801280DD100F0DAF90AE01D4887
:101A9000006838B91A480068C06AE16A884201D80B
:101AA0001748046018480068401C1749086094F8FB
:101AB0002C10012088401549096808431349086023
:101AC000E16A01EB8101124A02EB8100211D00F065
:101AD000F7FE00F041FF0B48006868B10848006855
:101AE000C06AE16A884207D24FF080500949086015
:101AF000BFF34F8FBFF36F8F10BD00008800002031
:101B00007800002094000020A40000209000002015
:101B10005802002004ED00E010B500F0DDFE104892
:101B20000068D0B90F4800F0A1FE0F4800F09EFEFB
:101B30000C480E4908600C480D490860002210212D
:101B40000A2001F045FA064908600846006820B1FD
:101B500008A10348006800F0E7FF00F0FDFE10BD9B
:101B6000BC0000203C05002050050020B4000020EF
:101B7000B8000020546D72510000000070B523E0E1
:101B800001F078F91348006808B9012000E000204E
:101B9000054601F087FEBDB900F09EFE0D48C06805
:101BA000C468201D00F04EFE0B480068401E0A4924
:101BB00008600A480068401E0849086000F0CCFE32
:101BC000204600F057F800BF044800680028D7D12D
:101BD00070BD000014050020880000208400002053
:101BE00070B504460D46206C70B1216CE068084465
:101BF000E0606168E068884201D32068E0602846C0
:101C0000226CE168FEF7DCFA70BD2DE9F041044674
:101C10000F4615464FF00008A66B206C28B37DB91F
:101C20003946226CA068FEF7CBFA216CA068084404
:101C3000A060D4E90110884217D32068A06014E0A6
:101C40003946226CE068FEF7BBFA216CE068401A66
:101C5000E0602168E068884203D2216C6068401A25
:101C6000E060022D01D106B1761E701CA0634046D3
:101C7000BDE8F08110B50446206B00F0A1FE2046BF
:101C800000F09EFE10BD00000146084A126812686E
:101C90000AB9012200E000220A600A6822B9034A58
:101CA0001268D268106800E000207047B40000207D
:101CB00030B54FF47053174800F007042CB1C01D25
:101CC00020F00700134C041B1B1B0246124C226021
:101CD0000024114D6C60D018083820F007000F4C1C
:101CE000206000240D4D2D686C600C4D2D682C601B
:101CF0001146441A4C60094C24680C60084D4C682D
:101D00002C60084D4C682C604FF00044064D2C6050
:101D100030BD000064050020D4000020DC0000205D
:101D2000E4000020E0000020E800002000BFFFF7F2
:101D300025FF064800680128F9D94FF08050044972
:101D40000860BFF34F8FBFF36F8FF0E7580200209A
:101D500004ED00E02DE9F04106460D461746984691
:101D6000069C0DB9246000E02760E663256401212C
:101D7000204601F041FABDE8F08100002DE9FF5F47
:101D800081460E469246DDE90E7B109CAAF10100C9
:101D9000216B01EB800828F0070808F0070008B95C
:101DA000012000E0002028B940F22B321AA120A027
:101DB000FFF73CFC002507E0715D04F1340041555C
:101DC000705D00B902E06D1C102DF5D300BF00213D
:101DD00043200155202F00D31F27E762201D00F06C
:101DE00052FD04F1180000F04EFD2461C7F12000FF
:101DF000A06164620020606484F84800494640465F
:101E0000039A00F091FB2060BBF1000F01D0CBF8EA
:101E10000040BDE8FF9F00004672656552544F5375
:101E20005C7372635C7461736B732E6300000000FB
:101E30004572726F723A25732C25640D0A000000FA
:101E400010B5002407E004EB84010F4A02EB810087
:101E500000F00CFD641C202CF5D30C4800F006FDAE
:101E60000B4800F003FD0B4800F000FD0A4800F0AD
:101E7000FDFC0A4800F0FAFC0448094908600448DF
:101E80000849086010BD000058020020D804002056
:101E9000EC04002000050020140500202805002087
:101EA0007C0000208000002010B50146164800E0AC
:101EB000006803688B42FBD30246436813448B429D
:101EC00004D143684C682344436001460A464B688A
:101ED00013440468A34211D10C4C03682468A34244
:101EE00008D04B680468646823444B6003681B682F
:101EF0000B6005E0054B1B680B6001E003680B609D
:101F0000884200D0016010BDD4000020DC00002019
:101F10002DE9F04104460D4616461F464FF00008D5
:101F200065602461B5420CD8F01BA169884202D3D8
:101F30004FF0010811E0211D0948006800F0A6FCDF
:101F40000BE0BE4204D2BD4202D34FF0010804E0D0
:101F5000211D0448006800F099FC4046BDE8F0816E
:101F6000B8000020B400002070B5054600F0B4FCB5
:101F7000A86B08B9012400E0002400F0EDFC204625
:101F800070BD70B5054600F0A7FCA86BE96B8842F0
:101F900001D1012400E0002400F0DEFC204670BDE9
:101FA000F8B505460F4613480068C068C468201D90
:101FB00000F048FCE069012818D1A06941192B46BE
:101FC0003A462046FFF7A4FF80B1002003462A4688
:101FD00001460090204601F031FD06462EB94FF42F
:101FE000027205A10AA0FFF721FB00BF2046616A2B
:101FF0008847F8BDB40000204672656552544F53BF
:102000005C7372635C74696D6572732E63000000AB
:102010004572726F723A25732C25640D0A00000018
:10202000F0B587B070E0039800280CDA04AE2EB942
:1020300040F2E7223AA140A0FFF7F8FAD6E90020E3
:10204000B168904700BF039800285DDB059C60697C
:1020500008B9012000E0002010B9201D00F0F2FBBB
:1020600002A800F0C7F8054603980A284AD2DFE81C
:1020700000F00905072C2E4506082D2F00BF00BFD4
:1020800000BF00BF0498A269811803462A46204673
:10209000FFF73EFFC0B12046616A8847E06901282A
:1020A00012D1002000900498A1694218002319461B
:1020B000204601F0C3FC07462FB940F2213218A197
:1020C0001DA0FFF7B3FA00BF1DE000BF1BE000BF7B
:1020D0000498A061A06908B1012000E0002028B99F
:1020E0004FF44E720EA114A0FFF7A0FAA069411997
:1020F0002B462A462046FFF70BFF04E0204600F05F
:102100005FFC00E000BF00BF00231A4603A90E4891
:10211000006800F099FF002885D107B0F0BD0000ED
:102120004672656552544F535C7372635C74696D9B
:102130006572732E630000004572726F723A2573E8
:102140002C25640D0A000000BC000020F8B50546EF
:102150000C4600F08FFE684600F04CF806460098EA
:1021600020BB44B9B54206D801F09CFB3146284655
:10217000FFF716FF1CE03CB10E480068006808B984
:10218000012000E000200446A91B22460A480068FE
:1021900000F0E0FC01F086FB50B94FF08050074999
:1021A0000860BFF34F8FBFF36F8F01E001F07AFB40
:1021B000F8BD0000B8000020BC00002004ED00E0E5
:1021C0000A490968096809B9012100E0002121B123
:1021D0004FF0FF31064A116006E004490968C968FA
:1021E000C868034A41681160704700007C00002005
:1021F000A800002070B5044601F040FA05460748E3
:102200000068854204D200F00BF80120206001E054
:102210000020206001480560284670BDC4000020F1
:102220002DE9F8432DE021480068C06805681F4883
:102230000068C068C468201D00F004FB2046616A85
:102240008847E06901281CD1A0694619AE4207D928
:1022500066602461211D1548006800F017FB10E03E
:10226000002003462A4601460090204601F0E6FB86
:1022700007462FB940F292320DA113A0FFF7D6F90D
:1022800000BF0A480068006808B9012000E000208B
:102290000028C8D00548D0F800800F4800680349DE
:1022A00008600D48C0F80080BDE8F883B400002045
:1022B0004672656552544F535C7372635C74696D0A
:1022C0006572732E630000004572726F723A257357
:1022D0002C25640D0A000000B80000200B4800689F
:1022E000401C08B9012000E0002020B9F42208A118
:1022F00010A0FFF79BF900BF502080F31188BFF3B7
:102300004F8FBFF36F8F00BF00BFFEE7C8000020F4
:102310004672656552544F535C706F72745C5256CE
:1023200044535C41524D5F434D335C706F72742E69
:10233000630000004572726F723A25732C25640D9C
:102340000A00000008B500BF6846FFF79DFC044680
:1023500020460099FFF7FAFEFFF762FEF4E770B53A
:10236000044600F0B9FA94F9455010E0606A08B9E3
:10237000012000E0002038B904F1240001F036FA11
:1023800018B100F095FC00E003E0681E45B2002D96
:10239000ECDC00BFFF2084F8450000F0DDFA00F01F
:1023A0009BFA94F9445010E0206908B9012000E03C
:1023B000002048B904F1100001F018FA08B100F04B
:1023C00077FC681E45B200E001E0002DECDC00BFA8
:1023D000FF2084F8440000F0BFFA70BD2DE9F04101
:1023E00004464FF0000800F045FD3E48006808B97B
:1023F000FFF75EFC3C480068204000285FD1A4B194
:10240000083404F0070080B104F00700C0F10800B0
:10241000044404F0070008B9012000E0002020B9BE
:10242000BF2232A139A0FFF701F9002C47D03B4869
:102430000068844243D83A4E3046056801E02E4693
:102440002D686868A04202D228680028F7D1254884
:102450000068854233D0306800F108082868306091
:102460006868001B102813D92F1907F0070008B956
:10247000012000E0002020B9EC221CA123A0FFF7DE
:10248000D5F86868001B78606C603846FFF70CFD73
:10249000224968680968081A2049086008460068E7
:1024A00020490968884203D21C4800681D49086019
:1024B0000D4968680968084368600020286001F0D9
:1024C000F1F908F0070008B9012000E0002028B960
:1024D0004FF4967205A10DA0FFF7A8F84046BDE89D
:1024E000F0810000DC000020E800002046726565F5
:1024F00052544F535C706F72745C4D656D4D616EDC
:10250000675C686561705F342E6300004572726FAE
:10251000723A25732C25640D0A000000E0000020AB
:10252000D4000020E4000020001F4FF080730360FF
:10253000001F21F001030360001F034B03601438E8
:102540000260203870470000DD22000870B50446A4
:102550003948007868B9A52C0BD10120364908709C
:10256000364801780078401C344A1070344844548E
:1025700060E03148007801280FD1304801780078B8
:10258000401C2E4A10702E484454104600780628ED
:1025900050DB0220284908704CE0274800780228C8
:1025A00019D1032024490870244801780078401C80
:1025B000224A107022484454012504E02048405D1E
:1025C0000644681CC5B21D480078801EA842F5DA92
:1025D0001C490E702EE018480078032825D11848B1
:1025E00080791849097888421FD15A2C0ED10020D1
:1025F000114908701148027811491348FDF7E0FDB0
:1026000000200E490870FFF70DF913E00C48C0795F
:102610005A280FD0094801780948FDF7EAFD002043
:10262000054908700549087004E000200249087057
:102630000249087070BD0000210000202200002027
:1026400008000020230000201000002010B586B0F4
:102650000446012144F20400FEF73AFB4FF40070F7
:10266000ADF8140003208DF8160018208DF817001F
:1026700005A91F48FDF7D3FF4FF48060ADF81400A3
:1026800004208DF8170005A91948FDF7C8FF25207B
:102690008DF8000000208DF8010003208DF8020065
:1026A00001208DF803006846FEF7D4F8019400205D
:1026B000ADF80800ADF80A00ADF80C00ADF8100058
:1026C0000C20ADF80E0001A90A48FEF73BFF0122DD
:1026D00040F225510748FEF710FF0122402105482E
:1026E000FEF7D8FE01210348FEF7C8FE06B010BD74
:1026F000000801400038014010B586B004460121B1
:102700000420FEF7E5FA01214804FEF7D1FA04207F
:10271000ADF8140003208DF8160018208DF817006E
:1027200005A91C48FDF77BFF0820ADF81400042024
:102730008DF8170005A91748FDF771FF26208DF8C1
:10274000000000208DF8010003208DF80200012018
:102750008DF803006846FEF77DF801940020ADF87F
:102760000800ADF80A00ADF80C00ADF810000C2020
:10277000ADF80E0001A90848FEF7E4FE012240F280
:1027800025510548FEF7B9FE01210348FEF776FE04
:1027900006B010BD000801400044004010B586B0EE
:1027A000044601210820FEF793FA01218804FEF770
:1027B0007FFA4FF48060ADF8140003208DF8160006
:1027C00018208DF8170005A91C48FDF728FF4FF4C5
:1027D0000060ADF8140004208DF8170005A9174813
:1027E000FDF71DFF27208DF8000001208DF8010066
:1027F00003208DF8020001208DF803006846FEF7E3
:1028000029F801940020ADF80800ADF80A00ADF8F1
:102810000C00ADF810000C20ADF80E0001A908481E
:10282000FEF790FE012240F225510548FEF765FEB5
:1028300001210348FEF722FE06B010BD000C014046
:102840000048004001460A69D1E901309860D1E9A9
:10285000010358605068884201D1886850600020A8
:1028600008611068401E10601068704700F1080190
:1028700041604FF0FF31816000F10801C1600161EA
:1028800000210160704700210161704710B50246C8
:102890000B685C1C0CB9106907E002F1080000E04D
:1028A0004068446824689C42FAD944684C604C688B
:1028B000A160886041600A611468641C146010BDE6
:1028C00042684A6093688B609368596091600861C0
:1028D00003685B1C0360704710B500BF502080F395
:1028E0001188BFF34F8FBFF36F8F00BF0B48006895
:1028F000401C0A4908600846006801280DD10848B4
:102900000068C0B208B9012000E0002028B94FF4E7
:10291000BD7204A10CA0FEF789FE10BDC800002006
:1029200004ED00E04672656552544F535C706F725F
:10293000745C525644535C41524D5F434D335C705E
:102940006F72742E630000004572726F723A2573C5
:102950002C25640D0A00000010B50B48006828B94A
:1029600040F2811209A112A0FEF760FE064800683D
:10297000401E054908600846006820B9002080F321
:10298000118800BF00BF10BDC800002046726565F9
:1029900052544F535C706F72745C525644535C4196
:1029A000524D5F434D335C706F72742E63000000B4
:1029B0004572726F723A25732C25640D0A0000006F
:1029C00070B506463546002E35D0083D2C461A49CE
:1029D00060680968084008B1012000E0002028B9BB
:1029E0004FF4A07215A11DA0FEF720FE206808B9C3
:1029F000012000E0002028B940F241120FA117A0E9
:102A0000FEF714FE0C4960680968084098B1206818
:102A100088B90949606809688843606000F02AFA4B
:102A20001249606809680844104908602046FFF7A9
:102A30003BFA00F037FF70BDE80000204672656584
:102A400052544F535C706F72745C4D656D4D616E86
:102A5000675C686561705F342E6300004572726F59
:102A6000723A25732C25640D0A000000E000002056
:102A7000064800684FF47A71B0FBF1F0401E4FF049
:102A8000E0214861072008617047000064000020D1
:102A900070B5FDF77FFB0546102D11D305F1E02041
:102AA00090F8F04310480078844201DB012000E0F8
:102AB000002028B94FF42A720CA115A0FEF7B6FD2C
:102AC0001748006800F4E06016490968884201D898
:102AD000012000E0002028B94FF42E7203A10CA0C1
:102AE000FEF7A4FD70BD0000CC00002046726565B5
:102AF00052544F535C706F72745C525644535C4135
:102B0000524D5F434D335C706F72742E6300000052
:102B10004572726F723A25732C25640D0A0000000D
:102B20000CED00E0D0000020024600200BE0084B36
:102B300053F8303033B9064B43F8301003EBC00381
:102B40005A6002E0401C0A28F1D300BF7047000021
:102B5000080200202DE9F04105460E4617462C4696
:102B6000FFF7BAFE94F94400401C10B9002084F825
:102B7000440094F94500401C10B9002084F8450039
:102B8000FFF7EAFEA06B28B93A46314604F124006B
:102B900000F0C0F82046FFF7E2FBBDE8F08100003E
:102BA00070B50546FFF798FE15B92D48006800E09E
:102BB00028460446201DFFF745FE78B9E06A00EB81
:102BC0008000284951F8200040B994F82C100120C9
:102BD000884025490968814323480160A06A18B1EB
:102BE00004F11800FFF72EFE20480068401C1F4922
:102BF00008601B480068844209D1211D1C48FFF76A
:102C00005FFE1C480068401C1A49086009E01A4829
:102C10000068401E184908602046FFF72BF8FFF7B0
:102C2000CFFAFFF799FE15480068C0B10C4800685C
:102C3000844214D11248006808B9012000E0002045
:102C400028B940F265420FA114A0FEF7EFFC4FF047
:102C5000805016490860BFF34F8FBFF36F8F70BD70
:102C6000780000205802002090000020A4000020DE
:102C7000140500208400002088000020940000201B
:102C8000B00000204672656552544F535C73726306
:102C90005C7461736B732E63000000004572726F89
:102CA000723A25732C25640D0A00000004ED00E043
:102CB00001200149086070479C00002070B504465F
:102CC0000D462CB940F6063207A10DA0FEF7AEFC6A
:102CD0000F48016818312046FFF7D8FD012128462A
:102CE000FEF774FE70BD00004672656552544F5386
:102CF0005C7372635C7461736B732E63000000001D
:102D00004572726F723A25732C25640D0A0000001B
:102D10007800002070B505460E4614462DB940F6E1
:102D2000313209A10EA0FEF781FC1148016818316B
:102D30002846FFF7C5FD0CB14FF0FF36214630465F
:102D4000FEF744FE70BD00004672656552544F5355
:102D50005C7372635C7461736B732E6300000000BC
:102D60004572726F723A25732C25640D0A000000BB
:102D70007800002010B504462CB940F6C13205A1F8
:102D80000AA0FEF753FC0D48006820600C4800685C
:102D9000606010BD4672656552544F535C73726338
:102DA0005C7461736B732E63000000004572726F78
:102DB000723A25732C25640D0A000000A000002043
:102DC0008C0000201CB51A4800210B468022CDE95A
:102DD000001018A1194800F011FC0446012C02D182
:102DE00000F0F2FD0446012C15D100BF502080F305
:102DF0001188BFF34F8FBFF36F8F00BF4FF0FF30CD
:102E00000F49086001200F49086000200E49086042
:102E100000F08EF80BE0601C08B1012000E00020FB
:102E200028B940F2847209A10EA0FEF7FFFB1CBD79
:102E3000AC00002049444C45000000002D1D000856
:102E4000A8000020940000208C00002046726565D8
:102E500052544F535C7372635C7461736B732E6373
:102E6000000000004572726F723A25732C25640DC4
:102E70000A00000002480068401C014908607047D1
:102E8000B000002010B51B48006818B101201A4995
:102E900008602DE000201849086018480068B0FA62
:102EA00080F0C0F11F0404EB8400154951F82000A4
:102EB00008B1012000E0002028B940F6F62211A157
:102EC00016A0FEF7B3FB04EB84010D4A02EB810070
:102ED00041684968416000F1080142688A4202D1B4
:102EE0004168496841604168C968104A116000BF83
:102EF00010BD0000B00000209C00002090000020C9
:102F0000580200204672656552544F535C737263D9
:102F10005C7461736B732E63000000004572726F06
:102F2000723A25732C25640D0A00000078000020F9
:102F30001CB52248014609780191FF210246117013
:102F40000146097800919DF8001001F050011C4ADB
:102F5000117007211B4A116009E01A490968491ECE
:102F6000184A11609DF800104906090E00919DF85D
:102F7000001001F080018029EFD012490968090290
:102F8000104A11601146098801F4E06111600B4A92
:102F9000019911700C48006840F470000A490860FB
:102FA0000846006840F070400860FFF761FD0020AF
:102FB00006490860FDF7B8F800201CBD00E400E0F9
:102FC000CC000020D000002020ED00E0C800002050
:102FD0002DE9F84305460E4690460DB1012000E06C
:102FE000002028B94FF4C4720DA113A0FEF71EFBF8
:102FF0000EB9002701E005FB06F707F14800FFF7CF
:10300000EDF9044644B104F1480943464A463146C5
:1030100028460094FEF79EFE2046BDE8F883000097
:103020004672656552544F535C7372635C7175658B
:1030300075652E63000000004572726F723A257349
:103040002C25640D0A0000002DE9FF4782B00546DB
:103050000E461F464FF0000A2C462CB940F2DC42C7
:103060005AA160A0FEF7E2FA0EB9206C08B901205F
:1030700000E0002028B940F2DD4254A159A0FEF73B
:10308000D5FA00F0EBFA08B9049808B9012000E07D
:10309000002028B94FF49C624CA152A0FEF7C6FA5A
:1030A00000BFFFF719FCD4F83890B9F1000F38D001
:1030B000D4F80C8031462046FEF792FDB7B9A9F14D
:1030C0000100A063206908B9012000E0002010BBC6
:1030D00004F1100000F08AFBE8B14FF08050454940
:1030E0000860BFF34F8FBFF36F8F14E0C4F80C80FC
:1030F000606A08B9012000E0002060B904F12400F2
:1031000000F074FB38B14FF080503A490860BFF3CB
:103110004F8FBFF36F8FFFF71FFC012006B0BDE894
:10312000F087049818B9FFF717FC0020F6E7BAF10A
:10313000000F04D16846FFF71DFE4FF0010AFFF7AC
:103140000BFCFFF797FEFFF7C7FB94F94400401C08
:1031500010B9002084F8440094F94500401C10B9CF
:10316000002084F84500FFF7F7FB04A9684600F04B
:10317000F3F9F0B92046FEF7F7FEA0B104F1240000
:103180000499FFF79BFD2046FFF7E9F800F08AFB62
:10319000002886D14FF0805016490860BFF34F8F4A
:1031A000BFF36F8F7DE72046FFF7D9F800F07AFB79
:1031B00077E72046FFF7D3F800F074FB2046FEF7D0
:1031C000D3FE0028EED00020A8E700004672656517
:1031D00052544F535C7372635C71756575652E63F1
:1031E000000000004572726F723A25732C25640D41
:1031F0000A00000004ED00E070B505460E462C46BE
:103200002CB940F21B121EA123A0FEF70FFAFFF704
:1032100063FBD4E90F12206801FB0200606000200C
:10322000A0632068A060E06B401E226C216800FB58
:103230000210E060FF2084F8440084F845009EB945
:10324000206908B9012000E00020A8B904F11000AD
:1032500000F0CCFA80B14FF0805013490860BFF302
:103260004F8FBFF36F8F07E004F11000FFF7FEFAF6
:1032700004F12400FFF7FAFAFFF76EFB012070BD9E
:103280004672656552544F535C7372635C71756529
:1032900075652E63000000004572726F723A2573E7
:1032A0002C25640D0A00000004ED00E02DE9FF4329
:1032B00083B0064688461D464FF0000934462CB9B7
:1032C00040F2D92258A15EA0FEF7B0F9B8F1000F84
:1032D00001D1206C08B9012000E0002028B940F29B
:1032E000DA2251A156A0FEF7A1F9022D02D1E06B1E
:1032F000012801D1012000E0002028B940F2DB22A2
:1033000049A14FA0FEF792F900F0A8F908B9059875
:1033100008B9012000E0002028B940F2DE2242A1D5
:1033200047A0FEF783F900BFFFF7D6FAA06BE16B69
:10333000884201D3022D28D12A4641462046FEF775
:1033400064FC0746606A08B9012000E0002068B903
:1033500004F1240000F04AFA88B14FF080503C4953
:103360000860BFF34F8FBFF36F8F08E03FB14FF09E
:10337000805037490860BFF34F8FBFF36F8FFFF75F
:10338000EBFA012007B0BDE8F083059818B9FFF704
:10339000E3FA0020F6E7B9F1000F04D101A8FFF726
:1033A000E9FC4FF00109FFF7D7FAFFF763FDFFF7DC
:1033B00093FA94F94400401C10B9002084F84400AA
:1033C00094F94500401C10B9002084F84500FFF72F
:1033D000C3FA05A901A800F0BFF8F0B92046FEF72E
:1033E000D0FDA0B104F110000599FFF767FC20465D
:1033F000FEF7B5FF00F056FA002895D14FF0805047
:1034000013490860BFF34F8FBFF36F8F8CE72046DF
:10341000FEF7A5FF00F046FA86E72046FEF79FFF7D
:1034200000F040FA0020ADE74672656552544F53F4
:103430005C7372635C71756575652E6300000000D6
:103440004572726F723A25732C25640D0A000000D4
:1034500004ED00E02DE9F05F07468A4690461E46DF
:103460003C462CB940F29F3231A137A0FEF7DEF87E
:10347000BAF1000F01D1206C08B9012000E0002052
:1034800028B94FF468722AA12FA0FEF7CFF8022EB8
:1034900002D1E06B012801D1012000E0002028B911
:1034A00040F2A13222A128A0FEF7C0F8FFF7F0FAFF
:1034B00000BF5021EFF3118081F31188BFF34F8FCC
:1034C000BFF36F8F00BF0546A06BE16B884201D34D
:1034D000022E23D194F945B0324651462046FEF7DC
:1034E00094FB0BF1010088B9606A08B9012000E083
:1034F000002080B904F1240000F078F958B1B8F147
:10350000000F08D00120C8F8000004E00BF1010012
:1035100040B284F845004FF0010901E04FF0000986
:1035200000BF85F3118800BF4846BDE8F09F00004A
:103530004672656552544F535C7372635C71756576
:1035400075652E63000000004572726F723A257334
:103550002C25640D0A0000002DE9F04104460D46BB
:103560002CB940F6CB3219A11EA0FEF75FF82DB999
:1035700040F6CC3215A11BA0FEF758F8FFF7ACF9C6
:103580001C4807682868401C08B9002619E01A4939
:1035900020680968884204D06068B84201D80126D2
:1035A0000FE06068381A2968884209D22868616883
:1035B000791A401A28602046FFF7DCFB002600E05D
:1035C0000126FFF7C9F93046BDE8F081467265650E
:1035D00052544F535C7372635C7461736B732E63EC
:1035E000000000004572726F723A25732C25640D3D
:1035F0000A0000008C000020A00000202DE9FF4FF1
:1036000085B0804689461746DDE912ABB800FEF763
:10361000E5FE064656B14C20FEF7E0FE04460CB12E
:10362000266304E03046FFF7CBF900E000247CB1CC
:103630000020CDE900ABCDE902403A46494640467C
:10364000089BFEF79BFB2046FEF70CFA012501E0E4
:103650004FF0FF35284609B0BDE8F08F05490968ED
:1036600009B9012005E00449096809B9022000E010
:103670000020704794000020B00000200149086835
:10368000704700008C0000202DE9F0414FF0000849
:1036900041480068002872D140480068451C3F48F6
:1036A0000560EDB93E480068006808B9012000E0F7
:1036B000002028B940F6D9123AA140A0FDF7B6FF84
:1036C0003748076841480068354908603F48076047
:1036D0003F480068401C3E490860FEF771FD00BF8E
:1036E0003C48006885423CD300BF2D480068006814
:1036F00008B9012000E0002020B14FF0FF3035492B
:1037000008602DE026480068C068C4686668B54255
:1037100002D23048066023E0201DFFF793F8A06A2C
:1037200018B104F11800FFF78DF894F82C1001205F
:10373000884029490968084327490860E16A01EB84
:103740008101264A02EB8100211DFFF7B9F82449C7
:10375000E06A0968C96A8842C7D34FF00108C4E724
:1037600000BF1F480068C06A00EB80001B4951F889
:103770002000012801D94FF0010805E0FFE71948B2
:103780000068401C174908601748006808B14FF0EE
:1037900001084046BDE8F081B00000208C00002008
:1037A0007C0000204672656552544F535C7372630F
:1037B0005C7461736B732E63000000004572726F5E
:1037C000723A25732C25640D0A0000008000002049
:1037D000A0000020A8000020900000205802002037
:1037E00078000020980000209C00002070B506465C
:1037F000F068C4682CB940F661321AA11FA0FDF729
:1038000015FF04F11800FFF71DF820480068A8B95B
:10381000201DFFF717F894F82C10012088401C4950
:10382000096808431A490860E16A01EB8101194AF5
:1038300002EB8100211DFFF743F804E004F11801B9
:103840001548FFF73DF81549E06A0968C96A8842DA
:1038500004D9012501201249086000E0002528460E
:1038600070BD00004672656552544F535C737263BD
:103870005C7461736B732E63000000004572726F9D
:10388000723A25732C25640D0A000000B000002058
:103890009000002058020020000500207800002041
:1038A0009C00002070B5002400263448006828B928
:1038B0004FF4FD6232A138A0FDF7B8FEFFF70CF817
:1038C0002E480068401E2D49086008460068002800
:1038D0004FD13548006800284BD024E03348C068F9
:1038E000C46804F11800FEF7ADFF201DFEF7AAFF23
:1038F00094F82C10012088402D49096808432C4970
:103900000860E16A01EB81012A4A02EB8100211D76
:10391000FEF7D6FF2849E06A0968C96A884202D3DF
:103920000120264908602148006808B9012000E00C
:1039300000200028D2D00CB1FEF742FC20480568D8
:1039400065B100BFFFF7A0FE10B101201B49086060
:103950006D1E002DF6D10020194908601748006837
:1039600038B10126300717490860BFF34F8FBFF306
:103970006F8FFEF7F1FF304670BD0000B0000020F1
:103980004672656552544F535C7372635C74617325
:103990006B732E63000000004572726F723A2573DC
:1039A0002C25640D0A00000088000020000500207E
:1039B0009000002058020020780000209C00002089
:1039C0009800002004ED00E01CB50024FEF7A4F8E8
:1039D0000B48006858B10B481F2100234FF4807238
:1039E000CDE9001008A10A48FFF708FE04462CB9EB
:1039F00040F2331207A10DA0FDF718FE20461CBDB2
:103A0000BC000020C0000020546D7220537663007B
:103A1000452300084672656552544F535C737263C8
:103A20005C74696D6572732E630000004572726F7D
:103A3000723A25732C25640D0A0000002DE9FF471A
:103A400004460D4616461F46DDF830804FF000094B
:103A50002CB94FF4D37217A11CA0FDF7E7FD1F4846
:103A6000006810B3009501960294062D15DAFFF751
:103A7000F5FD022808D10023424669461748006830
:103A8000FFF714FC814610E000231A4669461348EC
:103A90000068FFF70BFC814607E000233A466946C1
:103AA0000E480068FFF7D6FC8146484604B0BDE8E2
:103AB000F08700004672656552544F535C73726321
:103AC0005C74696D6572732E630000004572726FDD
:103AD000723A25732C25640D0A000000BC000020FA
:103AE000003B000800000020EC0000004C1600081D
:103AF000EC3B0008EC0000207C4400005C16000851
:103B000000000000000000000000000000000000B5
:103B100000000000000000000000000000000000A5
:103B20000000000000000000000000000000000095
:103B30000000000000000000000000000000000085
:103B40000000000000000000000000000000000075
:103B5000000001020304010203040607080902042D
:103B60000608000000A24A04000000000000000057
:103B7000010203040607080900000000000000001D
:103B80000000000000000000000000000000000035
:103B90000000000000000000000000000000000025
:103BA0000000000000000000000000000000000015
:103BB0000000000000000000000000000000000005
:103BC0000000000000000000AAAAAAAA000000004D
:103BD00000000000000000000000000000000000E5
:0C3BE000000000000000000000000000D9
:04000005080000ED02
:00000001FF
