:020000040800F2
:10000000F80800209D010008AD0A00086D0A0008EC
:10001000A90A0008BD080008171900080000000020
:1000200000000000000000000000000005010008C2
:10003000C108000800000000490100088111000803
:10004000B7010008B7010008B7010008B7010008B0
:10005000B7010008B7010008B7010008B7010008A0
:10006000B7010008B7010008B7010008B701000890
:10007000B7010008B7010008B7010008B701000880
:10008000B7010008B7010008B7010008B701000870
:10009000B7010008B7010008B7010008B701000860
:1000A000B7010008B7010008B7010008B701000850
:1000B000B7010008E5110008D1120008B7010008D7
:1000C000B7010008B7010008B7010008B701000830
:1000D000B7010008C51500084D160008D91600081C
:1000E000B7010008B7010008B7010008DFF810D019
:1000F00000F0A4FB00480047AD1C0008AFF30080EF
:10010000F8080020224B19680868B0E8F00F80F367
:100110000988BFF36F8F4FF0000080F311884EF015
:100120000D0E70470000000006480068006880F36C
:10013000088862B661B6BFF34F8FBFF36F8F00DFE1
:1001400000BF00BF08ED00E0EFF30980BFF36F8F41
:100150000F4B1A6820E9F00F106008B54FF05000FF
:1001600080F31188BFF34F8FBFF36F8F01F020FF33
:100170004FF0000080F31188BDE808401968086856
:10018000B0E8F00F80F30988BFF36F8F704700BFAE
:100190005C000020EFF305807047000006488047B0
:1001A00006480047FEE7FEE7FEE7FEE7FEE7FEE75C
:1001B000FEE7FEE7FEE7FEE785110008ED00000818
:1001C00040EA01039B0703D009E008C9121F08C0D9
:1001D000042AFAD203E011F8013B00F8013B521E59
:1001E000F9D27047D2B201E000F8012B491EFBD2D0
:1001F00070470022F6E710B513460A460446194632
:10020000FFF7F0FF204610BDF0B480EA0102D40FE2
:100210004200B2EB410F02D20246084611464A00A4
:1002200042D0C30DDDB2C1F3C752AD1A202D35DA6D
:10023000C1F3160141F4000204B15242C5F1200697
:1002400002FA06F12A411044B3EBD05F23D0C4B1C7
:10025000012DA0EBC35009DCF0BC4FF0004202EAD4
:10026000C352DBB200F5000000F05CBA400000F1C0
:10027000807000EBC350A0F1807040EAD17049005B
:1002800009E0490841EAC071A0EBC35000F5000045
:10029000400800EBC350F0BC00F03BBA61420122C1
:1002A00002EB4101001BF6E7F0BC704781F0004112
:1002B000AAE780F00040A7E780EA010210B502F04B
:1002C0000043400022D04A001FD0010E01EB126112
:1002D000C0F35600C2F3560240F4000042F400029C
:1002E000A0FB022000047F39140400D0401C50EA17
:1002F000124001D44000491EC2B20C0604EBD010DB
:10030000401C4008802A02D003E0002010BD20F0ED
:100310000100002900DA0020184310BD30B480EA43
:10032000010202F0004530F0004221F0004013D0FD
:1003300090B1C30DD40DC2F31601C0F31600E41A38
:1003400041F4000140F400027D34914201D3641C69
:1003500000E04900002C02DA30BC002070474FF466
:1003600000000023914201D3891A034340084FEA59
:100370004101F7D151B1914202D14FF0004105E066
:1003800002D24FF0010101E06FF0010103EBC45014
:10039000284430BC00F0BDB92DE9FE4F804681EA0B
:1003A0000300C00F0C46009021F0004123F00045EF
:1003B000B8EB0200A94105D24046214690461C46B2
:1003C0000B46024623F00040104347D0270DC7F3E9
:1003D0000A00C3F30A510290401A019040286BDAD8
:1003E000C3F3130040F4801B0098924620B1002311
:1003F000D2EB030A63EB0B0B01985946C0F14002A4
:10040000504600F055F906460D4650465946019AA9
:1004100000F06DF910EB08006141002487EA1152E9
:1004200084EAE7731A4340D0009A62B3019A012A22
:100430004FEA075215DC001B61EB02014FF000424E
:1004400002EA0752CDE90042001C41F58011324614
:100450002B4600F0A4F903B0BDE8F08F40462146DA
:10046000F9E7001B61EB0201001C41F58013001845
:100470005B412018A2F5001747EB030140EAD57055
:10048000B6196D4111E06D084FEA360645EAC075B0
:100490004FEA0752001B61EB0201001C41F580117D
:1004A00049084FEA30000019514132462B4603B04B
:1004B000BDE8F04F00F064B900980122400000232D
:1004C000D0EB020263EBE073009821464FEAE07440
:1004D000B8EB000061EB0401E9E783F000435BE760
:1004E00081F0004158E72DE9FE4F81EA030404F052
:1004F000004421F0004100944FF0000B23F0004332
:1005000050EA01045ED052EA03045BD0C3F30A54FC
:10051000C1F30A552C44A4F2F3340194A0FB025415
:10052000C1F3130141F48011C3F3130343F48013A7
:1005300001FB024400FB034E840A970A44EA8154FB
:1005400047EA8357A4FB076802958D0A05FB0785D8
:100550004FEA932C04FB0C542705029D4FEA0658E2
:1005600047EA1637B5EB08056EEB070C870E920EBF
:1005700047EA811742EA8312A7FB0201B6EB0B019F
:1005800064EB00042B0D43EA0C335E1844EB1C5063
:10059000DA465146E7FB0201C5F313044FEA0B3379
:1005A00043EA14534FEA0432019C43EA0603A4F1E0
:1005B0000C040294009CCDE900B400F0F0F803B004
:1005C000BDE8F08F00200146F9E7C10F80EAE07036
:1005D0000844CA079623002100F0A4B870B5C1F3FF
:1005E0000A5201F000450024C1F3130140F2FF3329
:1005F00041F480119A4201DA002070BD40F2334389
:100600009A42A2F2334203DC524200F060F800E06A
:1006100090402C43F1D0404270BD00F0004230F0D9
:1006200000400AD0C10D01F56071C0F3160042EA26
:100630000151C2084007114370470020014670472E
:1006400030B5041E71F1000404DB4FF00044404259
:1006500064EB0101141E73F1000405DB1C464FF02E
:100660000043524263EB04038B4208BF824230BD19
:10067000002801DBC0F10040002901DBC1F100418D
:100680008842704730B50B460146002020220124E5
:1006900009E021FA02F59D4205D303FA02F5491B50
:1006A00004FA02F52844151EA2F10102F1DC30BD66
:1006B000202A04DB203A00FA02F100207047914022
:1006C000C2F1200320FA03F3194390407047202A17
:1006D00004DB203A21FA02F00021704721FA02F3EC
:1006E000D040C2F120029140084319467047202AA9
:1006F00006DBCB17203A41FA02F043EAE07306E04A
:1007000041FA02F3D040C2F1200291400843194659
:1007100070470029A8BF7047401C490008BF20F05F
:100720000100704710B4B0FA80FC00FA0CF050EAF7
:10073000010404BF10BC704749B1CCF1200421FA78
:1007400004F411FA0CF118BF012121430843A3EB73
:100750000C01CB1D4FEA00614FEA102042BF002080
:1007600010BC704700EBC35010440029A4BF10BC5C
:100770007047401C490008BF20F0010010BC7047C2
:1007800010B5141E73F1000408DA401C41F1000199
:1007900092185B411A4301D120F0010010BD2DE9F0
:1007A000F04D92469B4611B1B1FA81F202E0B0FAE7
:1007B00080F220329046FFF77BFF04460F4640EA66
:1007C0000A0041EA0B0153465A46084313D011462A
:1007D00053EA010019D0C8F140025046FFF777FFF5
:1007E00005460E46504659464246FFF761FF08430C
:1007F00005D0012004E020463946BDE8F08D0020F8
:10080000054346EAE0762C4337430A986305E40A39
:10081000A0EB08000022FD0A44EA47540A3002D542
:1008200000200146E9E7010510196941DDE90845A5
:1008300000196941BDE8F04DA2E70000064C074DE4
:1008400006E0E06840F0010394E8070098471034A0
:10085000AC42F6D3FFF74EFC5C2000087C20000879
:1008600010B54FF4407000F05BF901F0C9F94FF496
:10087000E13001F0A5FA4FF4E13001F0F3FA4FF462
:10088000E13001F041FB00F0F3F88F2142F20F70EC
:1008900000F0C0FC40F29F5141F2873000F028FD8B
:1008A00040F2DA21044800F036FE40F2EE21024820
:1008B00000F033FE10BD00000004004000BFFEE762
:1008C00070472DE9F0410246002500260020002354
:1008D0000024002791F803C00CF00F0591F803C025
:1008E0000CF0100CBCF1000F03D091F802C04CEAE0
:1008F000050591F800C0BCF1000F31D0146800204C
:100900002BE04FF0010C0CFA00F3B1F800C00CEA38
:1009100003069E4220D183004FF00F0C0CFA03F720
:10092000BC4305FA03FC4CEA040491F803C0BCF193
:10093000280F06D14FF0010C0CFA00FCC2F814C0CD
:100940000AE091F803C0BCF1480F05D14FF0010C4B
:100950000CFA00FCC2F810C0401C0828D1D3146067
:10096000B1F800C0BCF1FF0F34DD546800202EE068
:1009700000F1080C4FF0010808FA0CF3B1F800C0C0
:100980000CEA03069E4221D183004FF00F0C0CFAB3
:1009900003F7BC4305FA03FC4CEA040491F803C0D6
:1009A000BCF1280F05D100F1080C08FA0CF8C2F8C8
:1009B000148091F803C0BCF1480F07D100F1080C76
:1009C0004FF0010808FA0CF8C2F81080401C082803
:1009D000CED35460BDE8F081F0B50A460023002470
:1009E0000021002500F00046B6F1004F02D11D4E57
:1009F000F16901E01B4E7168C0F3034583B200F456
:100A00004016B6F5401F08D121F07061154E76688A
:100A100026F07066134F7E6012E000F48016B6F583
:100A2000801F06D1032606FA05F4A14341F0706148
:100A300006E0460D360103FA06F6B14341F0706157
:100A400022B1460D360103FA06F6314300F00046A6
:100A5000B6F1004F02D1034EF16101E0014E716029
:100A6000F0BD0000000001400161704700BFFEE7DB
:100A700008B50121102000F081FA4FF40050ADF8C4
:100A8000000010208DF8030003208DF80200694655
:100A90000448FFF716FF4FF400510248FFF7E4FF48
:100AA00008BD00000010014000BFFEE770470000D5
:100AB00070B5002100230F22C47804B3154C2468BC
:100AC00004F4E064C4F5E064210AC1F10403CA40FF
:100AD000447804FA03F184781440214309010E4C50
:100AE0000678A155047804F01F050124AC40057870
:100AF0006D11AD0005F1E025C5F8004109E004786D
:100B000004F01F050124AC40044D0678761145F829
:100B1000264070BD0CED00E000E400E080E100E064
:100B200002490143024A1160704700000000FA05C3
:100B30000CED00E02D49097871B9FF280CD1012195
:100B40002A4A11702A490A780978491C284B1970D9
:100B5000284921F8120048E02449097801290ED1DA
:100B6000FE280CD10221214A117021490A78097806
:100B7000491C1F4B19701F4921F8120035E01B4911
:100B80000978022910D11A490A780978491C184BAA
:100B90001970184921F8120019460978042924DB34
:100BA0000321124A117020E010490978032917D156
:100BB0005B280DD100210D4A11700D4A11700D49AD
:100BC00089880D4A11800B49C9880C4A11800CE0B4
:100BD0005B280AD00021054A1170054A117004E013
:100BE0000021024A1170024A11707047040000206F
:100BF00005000020980000200000002002000020D6
:100C00005020144908603C2048601348486113484C
:100C1000C86113488861104888601048086111480D
:100C2000C8604FF07F501049886000200861C8609C
:100C30000849086288624862C8624863086340F2F3
:100C4000EE20086448640846006C88630846406CDF
:100C5000C8637047BC0000209A9909403333B33F02
:100C60000AD7A33CCDCC4C3E040100202DE9F04F27
:100C700087B0A9480088FD280BD1A8480088FD2826
:100C800007D1A748006CA64988630846406CC86332
:100C900033E1A3490968A34A9288881AFFF795FCB3
:100CA0009F4908629F49C9889D4A5268881AFFF780
:100CB0008CFC9B49C8620A46116A906AFFF7A4FA45
:100CC00005464FF08041FFF729FB0446964801682E
:100CD0002046FFF799FA94490860914AD16A506B0F
:100CE000FFF792FA05464FF08041FFF717FB0446E5
:100CF0008E4801682046FFF787FA8C4908608849CA
:100D000088698A490968FFF7D7FA8246FFF785FCA8
:100D10008046874A874BFFF7E6FB06460F46804929
:100D2000486CFFF752FC7E4A0390516BD06AFFF784
:100D3000BDFA01907A48C1690198FFF7BDFA834670
:100D40007D49FFF7B9FA8246754AD16A5069FFF7C3
:100D5000B3FA51460290FFF757FA81460399FFF71D
:100D600053FA8046FFF759FC32463B46CDE9040171
:100D7000FFF712FB0446FFF731FC6949C863C868F6
:100D800069490968FFF798FA8246FFF746FC06466C
:100D9000674A684BFFF7A7FB804689466049086CA5
:100DA000FFF713FC5E4A0390916A106AFFF77EFA20
:100DB00001905B4801690198FFF77EFA83465E491E
:100DC000FFF77AFA8246564A116A9068FFF774FA7A
:100DD00051460290FFF718FA07460399FFF714FAF5
:100DE0000646FFF71AFC42464B46CDE90401FFF7E1
:100DF000D3FA0446FFF7F2FB494988630846006AC4
:100E000088620846C06A48634C480088401C4B49C9
:100E1000088008460088B0F57A7F0BDA48494248D6
:100E20000068FFF725FC05D3454940480068FFF7F7
:100E30001FFC1ED24148018842A000F06FFD002037
:100E40003E490880424938480068FFF711FC02D249
:100E50000020354908603E4934480068FFF708FC27
:100E600007D24FF0804131480068FFF757FA2F4909
:100E700008602B49086AFFF7D0FB21F000410446C7
:100E80000022344BFFF7DCFB03D22548006C2449D9
:100E900088632349C86AFFF7C0FB21F0004104467C
:100EA00000222C4BFFF7CCFB03D21D48406C1C49A1
:100EB000C8631B48806B40F24C41884202DD084603
:100EC000174988631648806BB0F5C87F03DA4FF482
:100ED000C870134988631248C06B40F24C41884285
:100EE00002DD08460E49C8630D48C06BB0F5C87FE7
:100EF00003DA4FF4C8700A49C8630948008F81B209
:100F0000154800F008FB0648808F81B2124800F0B7
:100F100004FB07B0BDE8F08F0000002002000020B5
:100F2000BC000020980000201C00002020000020B1
:100F30009A9999999999B93F00002041240000207D
:100F40000050C346636F756E743D25640D0A000042
:100F500000401C45000014400004004029B1064A2E
:100F6000D2690243044BDA6104E0034AD269824346
:100F7000014BDA61704700000010024029B1064AB7
:100F800092690243044B9A6104E0034A92698243E6
:100F9000014B9A61704700000010024030B50021FB
:100FA0000022002400232D4D6D6805F00C0121B1B5
:100FB000042905D0082923D105E0294D056022E048
:100FC000274D05601FE0254D6D6805F47012234D17
:100FD0006D6805F48034022505EB92421CB9214D61
:100FE000554305600BE01D4D6D6805F400351DB1DE
:100FF0001C4D5543056002E0194D5543056002E064
:10100000174D056000BF00BF144D6D6805F0F0017D
:101010000909154D6B5C0568DD4045600F4D6D6835
:1010200005F4E061090A104D6B5C4568DD408560A0
:101030000A4D6D6805F46051C90A0B4D6B5C45683B
:10104000DD40C560054D6D6805F44041890B074DD5
:101050006B5CC568B5FBF3F5056130BD001002405F
:1010600000127A0000093D003200002042000020FA
:1010700010B500F001F810BD0CB5002001900090F3
:101080003348006840F480303149086000BF304880
:10109000006800F4003000900198401C0190009816
:1010A00018B90198B0F5A06FF1D12948006800F493
:1010B000003010B10120009001E000200090009865
:1010C000012843D12348006840F0100021490860FE
:1010D0000846006820F0030008600846006840F0F9
:1010E000020008601A48406819494860084640688C
:1010F00048600846406840F48060486008464068A0
:1011000020F47C1048600846406840F4E8104860CD
:101110000846006840F08070086000BF0C48006816
:1011200000F000700028F9D00948406820F0030062
:10113000074948600846406840F00200486000BF28
:101140000348406800F00C000828F9D10CBD0000ED
:101150000010024000200240042808D14FF0E02196
:10116000096941F004014FF0E022116107E04FF0FE
:10117000E021096921F004014FF0E022116170477C
:101180007047000010B51348006840F00100114995
:10119000086008464068104908400E494860084603
:1011A00000680E4908400B4908600846006820F4B2
:1011B000802008600846406820F4FE0048604FF434
:1011C0001F008860FFF754FF4FF00060044908607B
:1011D00010BD0000001002400000FFF8FFFFF6FE07
:1011E00008ED00E010B50121074800F0C4F848B14F
:1011F0000121054800F0B0F804480068C0430449E4
:10120000C1F8B40110BD000000040040B401224246
:101210000000224230B589B005460C46012102206B
:10122000FFF79CFE01210920FFF7A8FE01212448B9
:10123000FFF7D2FB01212348FFF7CEFB3020ADF8AA
:10124000200018208DF8230003208DF8220008A923
:101250001D48FFF736FBADF81850ADF814400020DC
:10126000ADF81A00ADF8160005A9184800F058F9B5
:101270006020ADF804000120ADF806000020ADF8B4
:101280000C0001A9114800F091F808210F4800F066
:1012900035F96020ADF804000120ADF8060000200B
:1012A000ADF80C0001A9094800F0D6F8082107485C
:1012B00000F0C8F80121054800F051F809B030BD30
:1012C0000002300000081A00000C01400004004039
:1012D00010B50121054800F04EF828B1012103485E
:1012E00000F03AF8FFF7C2FC10BD00000008004013
:1012F0007FB505460C4601210420FFF72FFEADF80F
:101300000850ADF804400020ADF80A00ADF8060022
:1013100001A9104800F004F9012211460D4800F01F
:101320003BF8012211460B4800F036F81E208DF8DC
:10133000000000208DF8010003208DF8020001203C
:101340008DF803006846FFF7B3FB0121014800F068
:1013500006F87FBD00080040CA430282704721B1F1
:10136000028842F00102028004E002884FF6FE7318
:101370001A400280704730B5024600200023002446
:10138000158A05EA0103958905EA010413B10CB138
:10139000012000E0002030BD1AB183890B43838116
:1013A00002E083898B4383817047000070B500247D
:1013B00000220023058C4FF6FE7635400584028C12
:1013C0008388048B4FF68F752C40B51E2C400D88FA
:1013D0002C43751E2A400D892A434D882A43144DFB
:1013E000A8420BD0134DA84208D0134DA84205D0F7
:1013F000124DA84202D0124DA84213D14FF6F775F4
:101400002A404D892A434FF6FB752A408D882A438E
:101410004FF6FF652B404FF6FF552B408D892B4330
:10142000CD892B4383800483CD888586028470BD5B
:10143000002C0140003401400040014000440140C4
:10144000004801400A460021018B4FF6F77319400E
:10145000114301837047000070B50024002200236F
:10146000058C4FF6EF7635400584028C8388048B1B
:1014700048F6FF752C404FF6FF452C400D884FF67F
:10148000FF7606EA05252C434FF6DF752A400D89C5
:1014900006EA05152A434D8806EA05152A43154D27
:1014A000A84202D0144DA8421DD14FF67F752A40A4
:1014B0004D894FF6FF7606EA05152A434FF6BF75AC
:1014C0002A408D8806EA05152A434FF6FF352B4042
:1014D0004FF2FF752B408D8906EA85052B43CD8998
:1014E00006EA85052B4383800483CD880587028423
:1014F00070BD0000002C0140003401400A4600216C
:10150000018B4FF2FF7319404FF6FF7303EA02237A
:101510001943018370478186704701877047000037
:10152000002202881D4B98420ED01D4B98420BD0D2
:10153000B0F1804F08D01B4B984205D01A4B98420F
:1015400002D01A4B984204D14FF68F731A404B8841
:101550001A43174B984207D0164B984204D04FF6C7
:10156000FF431A40CB881A4302808B8883850B88FF
:1015700003850A4B98420BD0094B984208D00E4B7A
:10158000984205D00D4B984202D00D4B984201D1A4
:101590000B7A03860123838270470000002C0140F0
:1015A000003401400004004000080040000C0040EE
:1015B0000010004000140040004001400044014081
:1015C0000048014010B540F225511D4800F0E2F8F6
:1015D00010B31B4800F09AF9C4B21A48008800F40E
:1015E0000040C8B91748008800F4804060B10A2C58
:1015F00003D000201349088020E01248008840F4FE
:1016000000401049088019E00D2C06D10D480088D3
:1016100040F480400B49088010E00A480088C0F37D
:101620000D0009490C5407480088401C05490880F2
:1016300008460088C72801DD0020088010BD000092
:1016400000380140300000204C01002010B540F26D
:1016500025511E4800F09EF828B31C4800F056F9AA
:10166000C4B22046FFF766FA1948008800F400402B
:10167000C8B91748008800F4804060B10A2C03D034
:1016800000201349088020E01148008840F4004001
:101690000F49088019E00D2C06D10D48008840F450
:1016A00080400B49088010E009480088C0F30D0015
:1016B00008490C5406480088401C05490880084623
:1016C0000088C72801DD0020088010BD00440040CC
:1016D000300000204C01002010B540F22551234875
:1016E00000F058F800283FD0204800F00FF92049BA
:1016F00008700846007800F0E3FA1E48008800F4FD
:10170000004088BB1B48008800F4804070B1184836
:1017100000780A2803D000201649088024E01548E4
:10172000008840F40040134908801DE0104800780C
:101730000D2806D10F48008840F480400D490880EC
:1017400012E00B4800780B490988C1F30D010A4AE1
:10175000505408480088401C064908800846008804
:10176000C72801DD0020088010BD000000480040AF
:1017700010000020300000204C01002021B182899F
:1017800042F40052828104E082894DF6FF731A40D0
:101790008281704770B50246002400230025002096
:1017A00040F66A16B14200D100BFC1F3421501F004
:1017B0001F03012606FA03F3012D02D19689334057
:1017C00006E0022D02D1168A334001E0968A3340AA
:1017D0000C12012606FA04F41688344013B10CB139
:1017E000012000E0002070BDF0B503460024002673
:1017F0000025002040F66A17B94200D100BF184604
:10180000C1F3421401F01F06012707FA06F5012C67
:1018100001D10C3004E0022C01D1103000E0143072
:101820001AB107682F43076002E00768AF430760FB
:10183000F0BD00002DE9F04786B005460E460024B5
:10184000A24600BFA1460027B08900B100BF2F46C5
:101850002C8A4CF6FF700440F08804432C82AC893B
:101860004EF6F3100440B08831890843718908436B
:101870000443AC81AC8A4FF6FF400440B089044376
:10188000AC8201A8FFF78AFB1F48874202D1DDF82E
:1018900010A001E0DDF80CA0A88900F4004040B1E0
:1018A0000AEBCA0000EB0A1031684900B0FBF1F8FE
:1018B00007E00AEBCA0000EB0A1031688900B0FBB0
:1018C000F1F86420B8FBF0F004012009642101FB69
:1018D0001089A88900F4004040B1322000EBC90013
:1018E000B0FBF1F000F00700044308E0322000EB09
:1018F00009106421B0FBF1F000F00F0004432C81CB
:1019000006B0BDE8F0870000003801400146888835
:10191000C0F30800704700BFFEE700000FB4054B9E
:1019200010B503A9044A029800F018F810BC5DF83D
:1019300014FB0000911C00082C00002002E008C8E5
:10194000121F08C1002AFAD170477047002001E039
:1019500001C1121F002AFBD1704700002DE9FF4F83
:101960008BB09A460F460546002606E025280BD088
:1019700052460D9990476D1C761C28780028F5D1A9
:101980000FB03046BDE8F08F0024A0460122604928
:1019900000E0044315F8013F203B02FA03F008423F
:1019A000F7D128782E2817D115F8010F44F0040438
:1019B0002A280ED06FF02F022878A0F130010929D3
:1019C0000AD808EB880102EB410100EB01086D1C0D
:1019D000F2E757F8048B6D1C287869283ED006DCA6
:1019E0000028CDD063280BD0642804D136E07328BA
:1019F00010D075284BD052460D999047761C85E043
:101A000017F8040B8DF8000000208DF80100E9465E
:101A1000012003E057F8049B4FF0FF3061074FF0BF
:101A2000000401D40AE0641C44450DDA8442FADB68
:101A300019F804100029F6D106E0641C8442FCDB8E
:101A400019F804100029F8D1264404E019F8010B14
:101A500052460D999047641EF8D257E001CF4FF0DF
:101A60000A0B002802DA40422D2102E0210504D5AC
:101A70002B218DF82410012103E0E10705D020215E
:101A8000F7E70DF1200908910CE00021F9E701CFFB
:101A90004FF00A0BF9E75946FEF7F4FD01F1300269
:101AA00009F8012D0028F6D1ADEB090000F1200B5B
:101AB000600701D44FF00108D84502DDA8EB0B0008
:101AC00000E000208046002406E009A85246005DA0
:101AD0000D999047641C761C08988442F5DB04E05D
:101AE000302052460D999047761CB8F10001A8F1BC
:101AF0000108F5DC05E019F8010B52460D999047F5
:101B0000761CBBF10001ABF1010BF4DC6D1C34E77A
:101B10000928010038484078012805D12320374999
:101B200008601420486066E033488078012808D1B6
:101B30005020324908601420486000202E498870E7
:101B400059E02D48C078012808D17D202B49086034
:101B50001420486000202849C8704CE026480079CD
:101B6000012808D12320254908603C204860002036
:101B7000214908713FE020484079012808D15020D0
:101B80001E4908603C20486000201B49487132E033
:101B900019488079012808D17D20184908603C2027
:101BA000486000201449887125E01348C079012855
:101BB00008D12320114908606420486000200E49A4
:101BC000C87118E00C48007A012808D150200B4950
:101BD0000860642048600020074908720BE006484E
:101BE000407A012807D17D200449086064204860BC
:101BF0000020014948727047AF000020BC0000205F
:101C000010B56FF00400FFF7A7FA0A4800680A4908
:101C1000B0FBF1F0094908700846007800EB40017C
:101C2000C1EBC0104FF6FF7101EAC0000449088003
:101C300010BD00004800002000127A00260000209D
:101C4000280000200146114A12884A434FF0E02341
:101C50005A6100229A611A46126942F001021A6121
:101C600000BF4FF0E022106900F001021AB100F449
:101C70008032002AF5D04FF0E022126922F00102F2
:101C80004FF0E0231A6100229A617047280000207B
:101C900000BF054A128802F04002002AF9D0C2B201
:101CA000014B1B1D1A80704700380140FEF7D8FD1C
:101CB000FEF7A6FF03E04FF4FA70FFF7C3FFFAE761
:101CC00070B504463948007868B9A52C0BD10120BD
:101CD00036490870364801780078401C344A107044
:101CE0003448445460E03148007801280FD130482E
:101CF00001780078401C2E4A10702E48445410463B
:101D000000780B2850DB0220284908704CE0274857
:101D10000078022819D1032024490870244801784A
:101D20000078401C224A107022484454012504E0E7
:101D30002048405D0644681CC5B21D480078801EDE
:101D4000A842F5DA1C490E702EE0184800780328E6
:101D500025D11848C07A1849097888421FD15A2CD1
:101D60000ED100201149087011480278114913481A
:101D7000FEF726FA00200E490870FFF7CBFE13E0AD
:101D80000C48007B5A280FD0094801780948FEF713
:101D900030FA0020054908700549087004E0002069
:101DA000024908700249087070BD0000110000204F
:101DB00012000020A200002013000020AF0000202D
:101DC00010B586B00446012144F20400FFF7D6F8AE
:101DD0004FF40070ADF8140003208DF816001820A1
:101DE0008DF8170005A91D48FEF76BFD4FF48060C4
:101DF000ADF8140004208DF8170005A91748FEF768
:101E000060FD25208DF8000000208DF801000320E2
:101E10008DF8020001208DF803006846FEF748FEA9
:101E200001940020ADF80800ADF80A00ADF80C00F0
:101E3000ADF810000C20ADF80E0001A90848FFF71E
:101E4000F9FC012240F225510548FFF7CDFC0121A4
:101E50000348FFF793FC06B010BD000000080140E6
:101E60000038014010B586B0044601210420FFF778
:101E700085F801214804FFF771F80420ADF814003B
:101E800003208DF8160018208DF8170005A91C48AE
:101E9000FEF717FD0820ADF8140004208DF8170098
:101EA00005A91748FEF70DFD26208DF8000000203B
:101EB0008DF8010003208DF8020001208DF8030049
:101EC0006846FEF7F5FD01940020ADF80800ADF876
:101ED0000A00ADF80C00ADF810000C20ADF80E00B3
:101EE00001A90848FFF7A6FC012240F22551054848
:101EF000FFF77AFC01210348FFF740FC06B010BD54
:101F0000000801400044004010B586B0044601219D
:101F10000820FFF733F801218804FFF71FF84FF47A
:101F20008060ADF8140003208DF8160018208DF89D
:101F3000170005A91C48FEF7C4FC4FF40060ADF87B
:101F4000140004208DF8170005A91748FEF7B9FC06
:101F500027208DF8000000208DF8010003208DF867
:101F6000020001208DF803006846FEF7A1FD0194F0
:101F70000020ADF80800ADF80A00ADF80C00ADF88F
:101F800010000C20ADF80E0001A90848FFF752FC24
:101F9000012240F225510548FFF726FC01210348A4
:101FA000FFF7ECFB06B010BD000C014000480040FC
:101FB00010B51B48006818B101201A4908602DE0CF
:101FC00000201849086018480068B0FA80F0C0F195
:101FD0001F0404EB8400154951F8200008B10120CA
:101FE00000E0002028B940F6F62211A116A0FFF764
:101FF00095FC04EB84010D4A02EB810041684968BD
:10200000416000F1080142688A4202D14168496892
:1020100041604168C968104A116000BF10BD0000EE
:102020009400002080000020740000201402002092
:102030004672656552544F535C7372635C7461738E
:102040006B732E63000000004572726F723A257345
:102050002C25640D0A0000005C0000207C20000894
:1020600000000020980000003C190008142100081E
:1020700098000020600800004C190008FD00FD00D9
:102080000000000000000000000000000000000050
:102090000000000000000000000000000000000040
:1020A0000000000000000000000000000000000030
:1020B00000000102030401020304060708090204E8
:1020C0000608000000A24A04000000000000000012
:1020D00001020304060708090000000000000000D8
:1020E00000000000000000000000000000000000F0
:1020F00000000000000000000000000000000000E0
:1021000000000000000000000000000000000000CF
:0421100000000000CB
:04000005080000ED02
:00000001FF
