:020000040800F2
:10000000A80800209D0100087307000809070008E0
:100010006F070008590500081F15000800000000C0
:1000200000000000000000000000000005010008C2
:100030005D0500080000000049010008250E0008C9
:10004000B7010008B7010008B7010008B7010008B0
:10005000B7010008B7010008B7010008B7010008A0
:10006000B7010008B7010008B7010008B701000890
:10007000B7010008B7010008B7010008B701000880
:10008000B7010008B7010008B7010008B701000870
:10009000B7010008B7010008B7010008B701000860
:1000A000B7010008B7010008B7010008B701000850
:1000B000B7010008890E0008B7010008B701000861
:1000C000B7010008B7010008B7010008B701000830
:1000D000B7010008CD11000855120008E112000810
:1000E000B7010008B7010008B7010008DFF810D019
:1000F00000F0F8F90048004729180008AFF3008025
:10010000A8080020224B19680868B0E8F00F80F3B7
:100110000988BFF36F8F4FF0000080F311884EF015
:100120000D0E70470000000006480068006880F36C
:10013000088862B661B6BFF34F8FBFF36F8F00DFE1
:1001400000BF00BF08ED00E0EFF30980BFF36F8F41
:100150000F4B1A6820E9F00F106008B54FF05000FF
:1001600080F31188BFF34F8FBFF36F8F01F0DAFC7C
:100170004FF0000080F31188BDE808401968086856
:10018000B0E8F00F80F30988BFF36F8F704700BFAE
:100190006C000020EFF305807047000006488047A0
:1001A00006480047FEE7FEE7FEE7FEE7FEE7FEE75C
:1001B000FEE7FEE7FEE7FEE7290E0008ED00000877
:1001C00040EA01039B0703D009E008C9121F08C0D9
:1001D000042AFAD203E011F8013B00F8013B521E59
:1001E000F9D27047D2B201E000F8012B491EFBD2D0
:1001F00070470022F6E710B513460A460446194632
:10020000FFF7F0FF204610BDF0B480EA0102D40FE2
:100210004200B2EB410F02D20246084611464A00A4
:1002200042D0C30DDDB2C1F3C752AD1A202D35DA6D
:10023000C1F3160141F4000204B15242C5F1200697
:1002400002FA06F12A411044B3EBD05F23D0C4B1C7
:10025000012DA0EBC35009DCF0BC4FF0004202EAD4
:10026000C352DBB200F5000000F00DB9400000F110
:10027000807000EBC350A0F1807040EAD17049005B
:1002800009E0490841EAC071A0EBC35000F5000045
:10029000400800EBC350F0BC00F0ECB86142012212
:1002A00002EB4101001BF6E7F0BC704781F0004112
:1002B000AAE780F00040A7E780EA010210B502F04B
:1002C0000043400022D04A001FD0010E01EB126112
:1002D000C0F35600C2F3560240F4000042F400029C
:1002E000A0FB022000047F39140400D0401C50EA17
:1002F000124001D44000491EC2B20C0604EBD010DB
:10030000401C4008802A02D003E0002010BD20F0ED
:100310000100002900DA0020184310BD30B480EA43
:10032000010202F0004530F0004221F0004013D0FD
:1003300090B1C30DD40DC2F31601C0F31600E41A38
:1003400041F4000140F400027D34914201D3641C69
:1003500000E04900002C02DA30BC002070474FF466
:1003600000000023914201D3891A034340084FEA59
:100370004101F7D151B1914202D14FF0004105E066
:1003800002D24FF0010101E06FF0010103EBC45014
:10039000284430BC00F06EB8C10F80EAE070084419
:1003A000CA079623002100F06EB800F0004220F04A
:1003B0000040C10DC0F3160040F400007F2901DAAF
:1003C00000207047962903DCC1F19601C84001E086
:1003D00096398840002AF4D04042704700F000422D
:1003E00030F000400AD0C10D01F56071C0F3160075
:1003F00042EA0151C20840071143704700200146FC
:100400007047000030B5041E71F1000404DB4FF0AA
:100410000044404264EB0101141E73F1000405DB4B
:100420001C464FF00043524263EB04038B4208BF6B
:10043000824230BD002801DBC0F10040002901DB11
:10044000C1F100418842704730B50B46014600209B
:100450002022012409E021FA02F59D4205D303FA86
:1004600002F5491B04FA02F52844151EA2F1010207
:10047000F1DC30BD0029A8BF7047401C490008BF0F
:1004800020F00100704710B4B0FA80FC00FA0CF0C4
:1004900050EA010404BF10BC704749B1CCF12004FC
:1004A00021FA04F411FA0CF118BF01212143084389
:1004B000A3EB0C01CB1D4FEA00614FEA102042BFB5
:1004C000002010BC704700EBC35010440029A4BFAB
:1004D00010BC7047401C490008BF20F0010010BC50
:1004E00070470000064C074D06E0E06840F001034D
:1004F00094E8070098471034AC42F6D3FFF7FAFDB2
:10050000D01B0008F01B000810B54FF4407000F03D
:1005100069F901F059F94FF4E13001F00BFA4FF4A9
:10052000E13001F059FA4FF4E13001F0A7FA00F0A0
:10053000EDF88F2142F20F7000F0BEFC40F2023164
:10054000044800F0ECFD40F20231024800F0E9FD01
:1005500010BD00000004004000BFFEE770472DE919
:10056000F041024600250026002000230024002739
:1005700091F803C00CF00F0591F803C00CF0100CBB
:10058000BCF1000F03D091F802C04CEA050591F8C8
:1005900000C0BCF1000F31D0146800202BE04FF0F8
:1005A000010C0CFA00F3B1F800C00CEA03069E42FD
:1005B00020D183004FF00F0C0CFA03F7BC4305FA6F
:1005C00003FC4CEA040491F803C0BCF1280F06D1E7
:1005D0004FF0010C0CFA00FCC2F814C00AE091F8CC
:1005E00003C0BCF1480F05D14FF0010C0CFA00FC20
:1005F000C2F810C0401C0828D1D31460B1F800C064
:10060000BCF1FF0F34DD546800202EE000F1080C2F
:100610004FF0010808FA0CF3B1F800C00CEA030629
:100620009E4221D183004FF00F0C0CFA03F7BC431C
:1006300005FA03FC4CEA040491F803C0BCF1280F4E
:1006400005D100F1080C08FA0CF8C2F8148091F8F2
:1006500003C0BCF1480F07D100F1080C4FF00108AE
:1006600008FA0CF8C2F81080401C0828CED3546059
:10067000BDE8F081F0B50A460023002400210025E2
:1006800000F00046B6F1004F02D11D4EF16901E0C5
:100690001B4E7168C0F3034583B200F44016B6F5F3
:1006A000401F08D121F07061154E766826F0706603
:1006B000134F7E6012E000F48016B6F5801F06D15D
:1006C000032606FA05F4A14341F0706106E0460DE9
:1006D000360103FA06F6B14341F0706122B1460DCE
:1006E000360103FA06F6314300F00046B6F1004F3A
:1006F00002D1034EF16101E0014E7160F0BD0000D6
:10070000000001400161704700BFFEE708B501210C
:10071000102000F061FA4FF40050ADF800001020F6
:100720008DF8030003208DF8020069460448FFF7A6
:1007300016FF4FF400510248FFF7E4FF08BD000028
:1007400000100140B0F5C87F01DC4FF4C870B1F56E
:10075000C87F01DC4FF4C87140F24C42904200DB8C
:10076000104640F24C42914200DB1146704700BFF8
:10077000FEE7704770B5002100230F22C47804B350
:10078000154C246804F4E064C4F5E064210AC1F166
:100790000403CA40447804FA03F1847814402143E6
:1007A00009010E4C0678A155047804F01F050124B8
:1007B000AC4005786D11AD0005F1E025C5F80041AC
:1007C00009E0047804F01F050124AC40044D0678CC
:1007D000761145F8264070BD0CED00E000E400E025
:1007E00080E100E002490143024A116070470000C5
:1007F0000000FA050CED00E010B504462E48007824
:1008000070B9FF2C0CD101202B4908702B480178BE
:100810000078401C294A1070294820F811404AE00D
:100820002548007801280ED1FE2C0CD10220224947
:100830000870224801780078401C204A1070204837
:1008400020F8114037E01C480078022810D11B48DE
:1008500001780078401C194A1070194820F811409E
:1008600010460078042826DB03201349087022E094
:1008700011480078032819D15B2C0FD100200E49B4
:1008800008700E4908700E4880880E4908800C4890
:10089000C0880D49088000F047F80CE05B2C0AD0B6
:1008A0000020054908700549087004E0002002494D
:1008B00008700249087010BD0400002005000020E7
:1008C000A800002000000020020000205020114954
:1008D00008603C204860104848611048C8611048D2
:1008E00088614FF07F508860002008610D48C86023
:1008F0000020086288624862C8624863086340F268
:100900000230086448640846006C88630846406CFE
:10091000C8637047B40000209A9939400000B8417C
:10092000A69B443B6F12033C2DE9F05F96488088FC
:10093000FD280BD19448C088FD2807D19348006C4E
:10094000924988630846406CC86314E18F4909687E
:100950008D4A9288881AFFF71FFD8C4908628A49E0
:10096000C9888A4A5268881AFFF716FD8749C86203
:100970000A46116A906AFFF747FC05464FF080412E
:10098000FFF7CCFC0446824801682046FFF73CFC98
:100990007F4908607D4AD16A506BFFF735FC0546F8
:1009A0004FF08041FFF7BAFC04467A4801682046C0
:1009B000FFF72AFC77490860744988697549096816
:1009C000FFF77AFC80467149486CFFF7E5FC8146E9
:1009D0006E4A516BD06AFFF769FC83466B48C16968
:1009E0005846FFF769FC0746684AD16A5069FFF725
:1009F00063FC82463946FFF707FC06464946FFF787
:100A000003FC05464146FFF7FFFB0446FFF7CDFC1C
:100A10005E49C863C8685E490968FFF74DFC8046B7
:100A20005A49086CFFF7B8FC8146584A916A106A27
:100A3000FFF73CFC8346554801695846FFF73CFCEC
:100A40000546524A116A9068FFF736FC82462946ED
:100A5000FFF7DAFB06464946FFF7D6FB0446414658
:100A6000FFF7D2FB0746FFF7A0FC4849886308461A
:100A7000006A88620846C06A486347480088401C8C
:100A80004549088008460088B0F57A7F0BDA43496B
:100A90003F480068FFF7CEFC05D340493D48006859
:100AA000FFF7C8FC23D23C4801883DA000F03AFD86
:100AB0000020394908803D4935480068FFF7BAFCF5
:100AC00007D24FF0804132480068FFF727FC3049D9
:100AD000086036492F480068FFF7ACFC07D24FF09A
:100AE00080412C480068FFF719FC2A490860274913
:100AF000086AFFF773FC21F00041044600222C4BEA
:100B0000FFF780FC03D22148006C204988631F490D
:100B1000C86AFFF763FC21F0004104460022244B21
:100B2000FFF770FC03D21948406C1849C863174896
:100B3000806B40F24C41884202DD084613498863CD
:100B40001248806BB0F5C87F03DA4FF4C8700F49C4
:100B500088630E48C06B40F24C41884202DD084673
:100B60000A49C8630948C06BB0F5C87F03DA4FF47F
:100B7000C8700649C8630548008F81B20D4800F06F
:100B8000CEFABDE8F09F0000A8000020B4000020CD
:100B90002C000020300000203400002000803B4565
:100BA000636F756E743D25640000000000401C45B5
:100BB000000014400004004029B1064AD2690243F3
:100BC000044BDA6104E0034AD2698243014BDA61E3
:100BD000704700000010024029B1064A92690243A2
:100BE000044B9A6104E0034A92698243014B9A6183
:100BF000704700000010024030B5002100220024A0
:100C000000232D4D6D6805F00C0121B1042905D09C
:100C1000082923D105E0294D056022E0274D056014
:100C20001FE0254D6D6805F47012234D6D6805F4C5
:100C30008034022505EB92421CB9214D55430560D5
:100C40000BE01D4D6D6805F400351DB11C4D55437D
:100C5000056002E0194D5543056002E0174D05603F
:100C600000BF00BF144D6D6805F0F0010909154D76
:100C70006B5C0568DD4045600F4D6D6805F4E06113
:100C8000090A104D6B5C4568DD4085600A4D6D6852
:100C900005F46051C90A0B4D6B5C4568DD40C560C9
:100CA000054D6D6805F44041890B074D6B5CC568C7
:100CB000B5FBF3F5056130BD0010024000127A006B
:100CC00000093D00420000205200002070B504469B
:100CD0000D4604F2EE200C49086005F2EE200B49A7
:100CE00008600846016808480068FFF72BFD0648C1
:100CF000008881B2064800F012FA0448008881B2E8
:100D0000034800F00EFA70BD2400002028000020E7
:100D10000004004010B500F001F810BD0CB5002033
:100D2000019000903348006840F4803031490860F9
:100D300000BF3048006800F4003000900198401C6B
:100D40000190009818B90198B0F5A06FF1D1294829
:100D5000006800F4003010B10120009001E0002094
:100D600000900098012843D12348006840F010000B
:100D7000214908600846006820F003000860084622
:100D8000006840F0020008601A484068194948604D
:100D90000846406848600846406840F48060486003
:100DA0000846406820F47C1048600846406840F4DB
:100DB000E81048600846006840F08070086000BF96
:100DC0000C48006800F000700028F9D0094840681D
:100DD00020F00300074948600846406840F00200E0
:100DE000486000BF0348406800F00C000828F9D1B3
:100DF0000CBD00000010024000200240042808D171
:100E00004FF0E021096941F004014FF0E022116147
:100E100007E04FF0E021096921F004014FF0E022E2
:100E2000116170477047000010B51348006840F02A
:100E300001001149086008464068104908400E4901
:100E40004860084600680E4908400B49086008469B
:100E5000006820F4802008600846406820F4FE0006
:100E600048604FF41F008860FFF754FF4FF00060A8
:100E70000449086010BD0000001002400000FFF8A7
:100E8000FFFFF6FE08ED00E010B50121074800F075
:100E900080F848B10121054800F06CF8044800686A
:100EA000C0430449C1F8B40110BD00000004004073
:100EB000B40122420000224230B589B005460C46FA
:100EC00001210220FFF778FE01210920FFF784FEAF
:100ED00001212448FFF7CEFB01212348FFF7CAFB7D
:100EE0003020ADF8200018208DF8230003208DF865
:100EF000220008A91D48FFF732FBADF81850ADF8E5
:100F000014400020ADF81A00ADF8160005A91848E5
:100F100000F00AF96020ADF804000120ADF80600E9
:100F20000020ADF80C0001A9114800F043F8082199
:100F30000F4800F0E7F86020ADF804000120ADF89C
:100F400006000020ADF80C0001A9094800F088F85F
:100F50000821074800F07AF80121054800F00DF853
:100F600009B030BD0002300000081A00000C01403A
:100F700000040040CA430282704721B1028842F057
:100F80000102028004E002884FF6FE731A400280DC
:100F9000704730B50246002000230024158A05EA78
:100FA0000103958905EA010413B10CB1012000E0A9
:100FB000002030BD70B5002400220023058C4FF6C0
:100FC000FE7635400584028C8388048B4FF68F753E
:100FD0002C40B51E2C400D882C43751E2A400D89CF
:100FE0002A434D882A43144DA8420BD0134DA842E2
:100FF00008D0134DA84205D0124DA84202D0124D80
:10100000A84213D14FF6F7752A404D892A434FF66F
:10101000FB752A408D882A434FF6FF652B404FF61B
:10102000FF552B408D892B43CD892B43838004832F
:10103000CD888586028470BD002C014000340140BB
:101040000040014000440140004801400A460021A0
:10105000018B4FF6F773194011430183704700006D
:1010600070B5002400220023058C4FF6EF76354042
:101070000584028C8388048B48F6FF752C404FF65C
:10108000FF452C400D884FF6FF7606EA05252C43D8
:101090004FF6DF752A400D8906EA05152A434D886B
:1010A00006EA05152A43154DA84202D0144DA84260
:1010B0001DD14FF67F752A404D894FF6FF7606EA1F
:1010C00005152A434FF6BF752A408D8806EA051597
:1010D0002A434FF6FF352B404FF2FF752B408D8989
:1010E00006EA85052B43CD8906EA85052B438380D7
:1010F0000483CD880587028470BD0000002C014068
:10110000003401400A460021018B4FF2FF73194061
:101110004FF6FF7303EA0223194301837047818668
:101120007047018770470000002202881D4B9842DB
:101130000ED01D4B98420BD0B0F1804F08D01B4B06
:10114000984205D01A4B984202D01A4B984204D1CB
:101150004FF68F731A404B881A43174B984207D0AB
:10116000164B984204D04FF6FF431A40CB881A43DF
:1011700002808B8883850B8803850A4B98420BD0AD
:10118000094B984208D00E4B984205D00D4B98421F
:1011900002D00D4B984201D10B7A03860123838242
:1011A00070470000002C0140003401400004004062
:1011B00000080040000C00400010004000140040F7
:1011C00000400140004401400048014010B540F299
:1011D00025511D4800F0E2F810B31B4800F09AF9C1
:1011E000C4B21A48008800F40040C8B91748008803
:1011F00000F4804060B10A2C03D00020134908801D
:1012000020E01248008840F400401049088019E0AE
:101210000D2C06D10D48008840F480400B49088011
:1012200010E00A480088C0F30D0009490C54074833
:101230000088401C0549088008460088C72801DD51
:101240000020088010BD0000003801404000002050
:10125000FC00002010B540F225511E4800F09EF819
:1012600028B31C4800F056F9C4B22046FFF7C4FA70
:101270001948008800F40040C8B91748008800F4F5
:10128000804060B10A2C03D000201349088020E080
:101290001148008840F400400F49088019E00D2CE7
:1012A00006D10D48008840F480400B49088010E0CA
:1012B00009480088C0F30D0008490C54064800880E
:1012C000401C0549088008460088C72801DD002029
:1012D000088010BD0044004040000020FC000020B9
:1012E00010B540F22551234800F058F800283FD0AF
:1012F000204800F00FF9204908700846007800F0F7
:1013000099FA1E48008800F4004088BB1B480088FA
:1013100000F4804070B1184800780A2803D00020FB
:101320001649088024E01548008840F4004013491D
:1013300008801DE0104800780D2806D10F4800886D
:1013400040F480400D49088012E00B4800780B49BA
:101350000988C1F30D010A4A505408480088401C0E
:101360000649088008460088C72801DD002008805B
:1013700010BD000000480040200000204000002078
:10138000FC00002021B1828942F40052828104E0F5
:1013900082894DF6FF731A408281704770B502460C
:1013A000002400230025002040F66A16B14200D137
:1013B00000BFC1F3421501F01F03012606FA03F333
:1013C000012D02D19689334006E0022D02D1168A02
:1013D000334001E0968A33400C12012606FA04F4E9
:1013E0001688344013B10CB1012000E0002070BD1C
:1013F000F0B50346002400260025002040F66A17B9
:10140000B94200D100BF1846C1F3421401F01F06D3
:10141000012707FA06F5012C01D10C3004E0022C5B
:1014200001D1103000E014301AB107682F43076073
:1014300002E00768AF430760F0BD00002DE9F04708
:1014400086B005460E460024A24600BFA1460027EE
:10145000B08900B100BF2F462C8A4CF6FF700440C3
:10146000F08804432C82AC894EF6F3100440B08817
:1014700031890843718908430443AC81AC8A4FF633
:10148000FF400440B0890443AC8201A8FFF7B4FBDD
:101490001F48874202D1DDF810A001E0DDF80CA062
:1014A000A88900F4004040B10AEBCA0000EB0A1022
:1014B00031684900B0FBF1F807E00AEBCA0000EB25
:1014C0000A1031688900B0FBF1F86420B8FBF0F035
:1014D00004012009642101FB1089A88900F400405F
:1014E00040B1322000EBC900B0FBF1F000F0070082
:1014F000044308E0322000EB09106421B0FBF1F056
:1015000000F00F0004432C8106B0BDE8F087000016
:101510000038014001468888C0F30800704700BFCA
:10152000FEE700000FB4054B10B503A9044A02986A
:1015300000F018F810BC5DF814FB00000D1800084E
:101540003C00002002E008C8121F08C1002AFAD19E
:1015500070477047002001E001C1121F002AFBD133
:10156000704700002DE9FF4F8BB09A460F460546A5
:10157000002606E025280BD052460D9990476D1C99
:10158000761C28780028F5D10FB03046BDE8F08FE2
:101590000024A0460122604900E0044315F8013F01
:1015A000203B02FA03F00842F7D128782E2817D101
:1015B00015F8010F44F004042A280ED06FF02F0212
:1015C0002878A0F1300109290AD808EB880102EB3C
:1015D000410100EB01086D1CF2E757F8048B6D1C0C
:1015E000287869283ED006DC0028CDD063280BD0AF
:1015F000642804D136E0732810D075284BD05246A9
:101600000D999047761C85E017F8040B8DF80000C3
:1016100000208DF80100E946012003E057F8049B03
:101620004FF0FF3061074FF0000401D40AE0641C62
:1016300044450DDA8442FADB19F804100029F6D18A
:1016400006E0641C8442FCDB19F804100029F8D180
:10165000264404E019F8010B52460D999047641E88
:10166000F8D257E001CF4FF00A0B002802DA4042CF
:101670002D2102E0210504D52B218DF82410012114
:1016800003E0E10705D02021F7E70DF120090891DB
:101690000CE00021F9E701CF4FF00A0BF9E75946BA
:1016A000FEF7D2FE01F1300209F8012D0028F6D133
:1016B000ADEB090000F1200B600701D44FF00108E9
:1016C000D84502DDA8EB0B0000E000208046002496
:1016D00006E009A85246005D0D999047641C761CEF
:1016E00008988442F5DB04E0302052460D9990477B
:1016F000761CB8F10001A8F10108F5DC05E019F845
:10170000010B52460D999047761CBBF10001ABF1DD
:10171000010BF4DC6D1C34E70928010010B52648E4
:101720004078012805D15020244908603C204860B9
:1017300041E021488078012808D114201F49086021
:101740003C20486000201C49887034E01A48C0786A
:1017500001280DD11A4800680A381949086008465E
:1017600001680020FFF7B2FA00201349C87022E098
:101770001148007901280DD1124800680A38114932
:10178000086000210F480068FFF7A0FA00200A490E
:10179000087110E00848407901280CD10948006818
:1017A0000A3008490860002106480068FFF78EFAF1
:1017B00000200149487110BD10000020B400002035
:1017C000180000201C00002010B56FF00400FFF787
:1017D00015FB0A4800680A49B0FBF1F00949087096
:1017E0000846007800EB4001C1EBC0104FF6FF71D6
:1017F00001EAC0000449088010BD00005800002024
:1018000000127A00360000203800002000BF054A90
:10181000128802F04002002AF9D0C2B2014B1B1D0F
:101820001A80704700380140FEF76EFEFFF74EF851
:1018300000BFFEE770B504463948007868B9A52CAA
:101840000BD1012036490870364801780078401CD9
:10185000344A10703448445460E03148007801281C
:101860000FD1304801780078401C2E4A10702E4865
:10187000445410460078062850DB0220284908709E
:101880004CE027480078022819D103202449087029
:10189000244801780078401C224A107022484454A1
:1018A000012504E02048405D0644681CC5B21D487F
:1018B0000078801EA842F5DA1C490E702EE0184808
:1018C0000078032825D1184880791849097888427A
:1018D0001FD15A2C0ED100201149087011480278EE
:1018E00011491348FEF76CFC00200E490870FFF701
:1018F00015FF13E00C48C0795A280FD00948017829
:101900000948FEF776FC0020054908700549087073
:1019100004E00020024908700249087070BD000010
:1019200021000020220000200800002023000020C9
:101930001000002010B586B00446012144F20400D6
:10194000FFF74AF94FF40070ADF8140003208DF84A
:10195000160018208DF8170005A91D48FEF7FFFD99
:101960004FF48060ADF8140004208DF8170005A92D
:101970001748FEF7F4FD25208DF8000000208DF8B3
:10198000010003208DF8020001208DF80300684655
:10199000FEF7F0FE01940020ADF80800ADF80A0053
:1019A000ADF80C00ADF810000C20ADF80E0001A948
:1019B0000848FFF743FD012240F225510548FFF793
:1019C00017FD01210348FFF7DDFC06B010BD000044
:1019D000000801400038014010B586B004460121DE
:1019E0000420FFF7F9F801214804FFF7E5F8042087
:1019F000ADF8140003208DF8160018208DF817009C
:101A000005A91C48FEF7ABFD0820ADF81400042022
:101A10008DF8170005A91748FEF7A1FD26208DF8BF
:101A2000000000208DF8010003208DF80200012045
:101A30008DF803006846FEF79DFE01940020ADF886
:101A40000800ADF80A00ADF80C00ADF810000C204D
:101A5000ADF80E0001A90848FFF7F0FC012240F2A2
:101A600025510548FFF7C4FC01210348FFF78AFC14
:101A700006B010BD000801400044004010B586B01B
:101A8000044601210820FFF7A7F801218804FFF789
:101A900093F84FF48060ADF8140003208DF8160021
:101AA00018208DF8170005A91C48FEF758FD4FF4C3
:101AB0000060ADF8140004208DF8170005A9174840
:101AC000FEF74DFD27208DF8000001208DF8010064
:101AD00003208DF8020001208DF803006846FEF710
:101AE00049FE01940020ADF80800ADF80A00ADF8F9
:101AF0000C00ADF810000C20ADF80E0001A908484C
:101B0000FFF79CFC012240F225510548FFF770FCCD
:101B100001210348FFF736FC06B010BD000C014060
:101B20000048004010B51B48006818B101201A4950
:101B300008602DE000201849086018480068B0FAD5
:101B400080F0C0F11F0404EB8400154951F8200017
:101B500008B1012000E0002028B940F6F62211A1CA
:101B600016A0FFF7DFFC04EB84010D4A02EB8100B5
:101B700041684968416000F1080142688A4202D127
:101B80004168496841604168C968104A116000BFF6
:101B900010BD0000A4000020900000208400002060
:101BA000C40100204672656552544F535C737263E2
:101BB0005C7461736B732E63000000004572726F7A
:101BC000723A25732C25640D0A0000006C00002079
:101BD000F01B000800000020A800000044150008C9
:101BE000981C0008A80000200008000054150008F8
:101BF00000000000000000000000000000000000E5
:101C000000000000000000000000000000000000D4
:101C100000000000000000000000000000000000C4
:101C200000000000000000000000000000000000B4
:101C30000000000000000102030401020304060783
:101C4000080902040608000000A24A04000000007F
:101C5000000000000102030406070809000000005C
:101C60000000000000000000000000000000000074
:101C70000000000000000000000000000000000064
:101C80000000000000000000000000000000000054
:081C900000000000000000004C
:04000005080000ED02
:00000001FF
