:020000040800F2
:10000000880800209D0100088B06000821060008D2
:1000100087060008710400088F1200080000000025
:1000200000000000000000000000000005010008C2
:10003000750400080000000049010008950B000845
:10004000B7010008B7010008B7010008B7010008B0
:10005000B7010008B7010008B7010008B7010008A0
:10006000B7010008B7010008B7010008B701000890
:10007000B7010008B7010008B7010008B701000880
:10008000B7010008B7010008B7010008B701000870
:10009000B7010008B7010008B7010008B701000860
:1000A000B7010008B7010008B7010008B701000850
:1000B000B7010008F90B0008B7010008B7010008F4
:1000C000B7010008B7010008B7010008B701000830
:1000D000B70100083D0F0008C50F000851100008C7
:1000E000B7010008B7010008B7010008DFF810D019
:1000F00000F084F900480047E9150008AFF30080DC
:1001000088080020224B19680868B0E8F00F80F3D7
:100110000988BFF36F8F4FF0000080F311884EF015
:100120000D0E70470000000006480068006880F36C
:10013000088862B661B6BFF34F8FBFF36F8F00DFE1
:1001400000BF00BF08ED00E0EFF30980BFF36F8F41
:100150000F4B1A6820E9F00F106008B54FF05000FF
:1001600080F31188BFF34F8FBFF36F8F01F0BEFB99
:100170004FF0000080F31188BDE808401968086856
:10018000B0E8F00F80F30988BFF36F8F704700BFAE
:1001900060000020EFF305807047000006488047AC
:1001A00006480047FEE7FEE7FEE7FEE7FEE7FEE75C
:1001B000FEE7FEE7FEE7FEE7990B0008ED0000080A
:1001C00040EA01039B0703D009E008C9121F08C0D9
:1001D000042AFAD203E011F8013B00F8013B521E59
:1001E000F9D27047D2B201E000F8012B491EFBD2D0
:1001F00070470022F6E710B513460A460446194632
:10020000FFF7F0FF204610BDF0B480EA0102D40FE2
:100210004200B2EB410F02D20246084611464A00A4
:1002200042D0C30DDDB2C1F3C752AD1A202D35DA6D
:10023000C1F3160141F4000204B15242C5F1200697
:1002400002FA06F12A411044B3EBD05F23D0C4B1C7
:10025000012DA0EBC35009DCF0BC4FF0004202EAD4
:10026000C352DBB200F5000000F099B8400000F185
:10027000807000EBC350A0F1807040EAD17049005B
:1002800009E0490841EAC071A0EBC35000F5000045
:10029000400800EBC350F0BC00F078B86142012286
:1002A00002EB4101001BF6E7F0BC704781F0004112
:1002B000AAE780F00040A7E780EA010210B502F04B
:1002C0000043400022D04A001FD0010E01EB126112
:1002D000C0F35600C2F3560240F4000042F400029C
:1002E000A0FB022000047F39140400D0401C50EA17
:1002F000124001D44000491EC2B20C0604EBD010DB
:10030000401C4008802A02D003E0002010BD20F0ED
:100310000100002900DA0020184310BDC10F80EA57
:10032000E0700844CA079623002100F038B800F0B6
:10033000004220F00040C10DC0F3160040F4000060
:100340007F2901DA00207047962903DCC1F196016C
:10035000C84001E096398840002AF4D040427047F6
:1003600030B50B46014600202022012409E021FA85
:1003700002F59D4205D303FA02F5491B04FA02F582
:100380002844151EA2F10102F1DC30BD0029A8BFEE
:100390007047401C490008BF20F00100704710B4AE
:1003A000B0FA80FC00FA0CF050EA010404BF10BC63
:1003B000704749B1CCF1200421FA04F411FA0CF190
:1003C00018BF012121430843A3EB0C01CB1D4FEAC9
:1003D00000614FEA102042BF002010BC704700EBC4
:1003E000C35010440029A4BF10BC7047401C4900F2
:1003F00008BF20F0010010BC70470000064C074DFC
:1004000006E0E06840F0010394E8070098471034E4
:10041000AC42F6D3FFF76EFE98190008B819000831
:1004200010B54FF4407000F069F901F087F84FF40F
:10043000E13001F063F94FF4E13001F0B1F94FF42C
:10044000E13001F0FFF900F0EDF88F2142F20F707A
:1004500000F0EAFB40F2EE21044800F018FD40F203
:10046000EE21024800F015FD10BD00000004004020
:1004700000BFFEE770472DE9F04102460025002647
:10048000002000230024002791F803C00CF00F0582
:1004900091F803C00CF0100CBCF1000F03D091F8E0
:1004A00002C04CEA050591F800C0BCF1000F31D044
:1004B000146800202BE04FF0010C0CFA00F3B1F8A7
:1004C00000C00CEA03069E4220D183004FF00F0CBF
:1004D0000CFA03F7BC4305FA03FC4CEA040491F858
:1004E00003C0BCF1280F06D14FF0010C0CFA00FC40
:1004F000C2F814C00AE091F803C0BCF1480F05D15E
:100500004FF0010C0CFA00FCC2F810C0401C082887
:10051000D1D31460B1F800C0BCF1FF0F34DD5468D2
:1005200000202EE000F1080C4FF0010808FA0CF34F
:10053000B1F800C00CEA03069E4221D183004FF0BF
:100540000F0C0CFA03F7BC4305FA03FC4CEA040455
:1005500091F803C0BCF1280F05D100F1080C08FA8E
:100560000CF8C2F8148091F803C0BCF1480F07D111
:1005700000F1080C4FF0010808FA0CF8C2F81080DE
:10058000401C0828CED35460BDE8F081F0B50A467F
:10059000002300240021002500F00046B6F1004FA2
:1005A00002D11D4EF16901E01B4E7168C0F3034595
:1005B00083B200F44016B6F5401F08D121F07061F7
:1005C000154E766826F07066134F7E6012E000F4D8
:1005D0008016B6F5801F06D1032606FA05F4A1435E
:1005E00041F0706106E0460D360103FA06F6B143AC
:1005F00041F0706122B1460D360103FA06F631432F
:1006000000F00046B6F1004F02D1034EF16101E067
:10061000014E7160F0BD00000000014001617047B3
:1006200000BFFEE708B50121102000F08DF94FF45E
:100630000050ADF8000010208DF8030003208DF865
:10064000020069460448FFF716FF4FF400510248C4
:10065000FFF7E4FF08BD000000100140B0F5C87FBF
:1006600001DC4FF4C870B1F5C87F01DC4FF4C871EC
:1006700040F24C42904200DB104640F24C42914224
:1006800000DB1146704700BFFEE7704770B50021E0
:1006900000230F22C47804B3154C246804F4E064EA
:1006A000C4F5E064210AC1F10403CA40447804FAA5
:1006B00003F184781440214309010E4C0678A155BA
:1006C000047804F01F050124AC4005786D11AD00DD
:1006D00005F1E025C5F8004109E0047804F01F05A4
:1006E0000124AC40044D0678761145F8264070BDD3
:1006F0000CED00E000E400E080E100E0024901438D
:10070000024A1160704700000000FA050CED00E09D
:1007100010B504462A48007870B9FF2C0CD101208E
:1007200027490870274801780078401C254A107036
:10073000254820F8114042E02148007801280ED1D8
:10074000FE2C0CD102201E4908701E48017800784A
:10075000401C1C4A10701C4820F811402FE018481B
:100760000078022810D1174801780078401C154AFB
:100770001070154820F811401046007804281EDB40
:1007800003200F4908701AE00D480078032811D1A2
:100790005B2C07D100200A4908700A49087000F054
:1007A00035F80CE05B2C0AD000200549087005499B
:1007B000087004E00020024908700249087010BD6A
:1007C00004000020050000209C00002050200C495F
:1007D00008603C2048600B4888600B480861002096
:1007E000C86048618861C861086240F2EE20C86252
:1007F00008630846C06A48620846006B8862704712
:10080000A8000020666626400000A0412DE9F047C0
:100810003F488088FD280BD13D48C088FD2807D17E
:100820003C48406A3B4948620846806A886261E009
:1008300038490968364A9288881AFFF76FFD3549AA
:1008400048613349C988334A5268881AFFF766FD00
:100850003049C861C86AFFF761FD07462D4A9169B2
:100860005069FFF723FD81462A4801694846FFF792
:1008700023FD0646274A51699068FFF71DFD804613
:100880003146FFF7C1FC05463946FFF7BDFC04467B
:10089000FFF74DFD1F494862086BFFF73FFD074614
:1008A0001C4A116AD069FFF701FD814619480169A8
:1008B0004846FFF701FD0646164AD1699068FFF7E2
:1008C000FBFC80463146FFF79FFC05463946FFF7A3
:1008D0009BFC0446FFF72BFD0E4988620846416ADF
:1008E0000DA000F0D7FC0B4840690A498861084612
:1008F000C06908620748808C81B20A4800F0C7FAD4
:100900000448008D81B2074800F0C3FABDE8F087C3
:100910009C000020A800002050574D5F583A2564E5
:100920000D0A00000004004029B1064AD2690243C2
:10093000044BDA6104E0034AD2698243014BDA6175
:10094000704700000010024029B1064A9269024334
:10095000044B9A6104E0034A92698243014B9A6115
:10096000704700000010024030B500210022002432
:1009700000232D4D6D6805F00C0121B1042905D02F
:10098000082923D105E0294D056022E0274D0560A7
:100990001FE0254D6D6805F47012234D6D6805F458
:1009A0008034022505EB92421CB9214D5543056068
:1009B0000BE01D4D6D6805F400351DB11C4D554310
:1009C000056002E0194D5543056002E0174D0560D2
:1009D00000BF00BF144D6D6805F0F0010909154D09
:1009E0006B5C0568DD4045600F4D6D6805F4E061A6
:1009F000090A104D6B5C4568DD4085600A4D6D68E5
:100A000005F46051C90A0B4D6B5C4568DD40C5605B
:100A1000054D6D6805F44041890B074D6B5CC56859
:100A2000B5FBF3F5056130BD0010024000127A00FD
:100A300000093D00360000204600002070B5044645
:100A40000D4604F2EE200C49086005F2EE200B4939
:100A500008600846016808480068FFF7FFFD06487F
:100A6000008881B2064800F012FA0448008881B27A
:100A7000034800F00EFA70BD24000020280000207A
:100A80000004004010B500F001F810BD0CB50020C6
:100A9000019000903348006840F48030314908608C
:100AA00000BF3048006800F4003000900198401CFE
:100AB0000190009818B90198B0F5A06FF1D12948BC
:100AC000006800F4003010B10120009001E0002027
:100AD00000900098012843D12348006840F010009E
:100AE000214908600846006820F0030008600846B5
:100AF000006840F0020008601A48406819494860E0
:100B00000846406848600846406840F48060486095
:100B10000846406820F47C1048600846406840F46D
:100B2000E81048600846006840F08070086000BF28
:100B30000C48006800F000700028F9D009484068AF
:100B400020F00300074948600846406840F0020072
:100B5000486000BF0348406800F00C000828F9D145
:100B60000CBD00000010024000200240042808D103
:100B70004FF0E021096941F004014FF0E0221161DA
:100B800007E04FF0E021096921F004014FF0E02275
:100B9000116170477047000010B51348006840F0BD
:100BA00001001149086008464068104908400E4994
:100BB0004860084600680E4908400B49086008462E
:100BC000006820F4802008600846406820F4FE0099
:100BD00048604FF41F008860FFF754FF4FF000603B
:100BE0000449086010BD0000001002400000FFF83A
:100BF000FFFFF6FE08ED00E010B50121074800F008
:100C000080F848B10121054800F06CF804480068FC
:100C1000C0430449C1F8B40110BD00000004004005
:100C2000B40122420000224230B589B005460C468C
:100C300001210220FFF778FE01210920FFF784FE41
:100C400001212448FFF7A2FC01212348FFF79EFC65
:100C50003020ADF8200018208DF8230003208DF8F7
:100C6000220008A91D48FFF706FCADF81850ADF8A2
:100C700014400020ADF81A00ADF8160005A9184878
:100C800000F00AF96020ADF804000120ADF806007C
:100C90000020ADF80C0001A9114800F043F808212C
:100CA0000F4800F0E7F86020ADF804000120ADF82F
:100CB00006000020ADF80C0001A9094800F088F8F2
:100CC0000821074800F07AF80121054800F00DF8E6
:100CD00009B030BD0002300000081A00000C0140CD
:100CE00000040040CA430282704721B1028842F0EA
:100CF0000102028004E002884FF6FE731A4002806F
:100D0000704730B50246002000230024158A05EA0A
:100D10000103958905EA010413B10CB1012000E03B
:100D2000002030BD70B5002400220023058C4FF652
:100D3000FE7635400584028C8388048B4FF68F75D0
:100D40002C40B51E2C400D882C43751E2A400D8961
:100D50002A434D882A43144DA8420BD0134DA84274
:100D600008D0134DA84205D0124DA84202D0124D12
:100D7000A84213D14FF6F7752A404D892A434FF602
:100D8000FB752A408D882A434FF6FF652B404FF6AE
:100D9000FF552B408D892B43CD892B4383800483C2
:100DA000CD888586028470BD002C0140003401404E
:100DB0000040014000440140004801400A46002133
:100DC000018B4FF6F7731940114301837047000000
:100DD00070B5002400220023058C4FF6EF763540D5
:100DE0000584028C8388048B48F6FF752C404FF6EF
:100DF000FF452C400D884FF6FF7606EA05252C436B
:100E00004FF6DF752A400D8906EA05152A434D88FD
:100E100006EA05152A43154DA84202D0144DA842F2
:100E20001DD14FF67F752A404D894FF6FF7606EAB1
:100E300005152A434FF6BF752A408D8806EA051529
:100E40002A434FF6FF352B404FF2FF752B408D891B
:100E500006EA85052B43CD8906EA85052B43838069
:100E60000483CD880587028470BD0000002C0140FA
:100E7000003401400A460021018B4FF2FF731940F4
:100E80004FF6FF7303EA02231943018370478186FB
:100E90007047018770470000002202881D4B98426E
:100EA0000ED01D4B98420BD0B0F1804F08D01B4B99
:100EB000984205D01A4B984202D01A4B984204D15E
:100EC0004FF68F731A404B881A43174B984207D03E
:100ED000164B984204D04FF6FF431A40CB881A4372
:100EE00002808B8883850B8803850A4B98420BD040
:100EF000094B984208D00E4B984205D00D4B9842B2
:100F000002D00D4B984201D10B7A038601238382D4
:100F100070470000002C01400034014000040040F4
:100F200000080040000C0040001000400014004089
:100F300000400140004401400048014010B540F22B
:100F400025511D4800F0E2F810B31B4800F09AF953
:100F5000C4B21A48008800F40040C8B91748008895
:100F600000F4804060B10A2C03D0002013490880AF
:100F700020E01248008840F400401049088019E041
:100F80000D2C06D10D48008840F480400B490880A4
:100F900010E00A480088C0F30D0009490C540748C6
:100FA0000088401C0549088008460088C72801DDE4
:100FB0000020088010BD00000038014034000020EF
:100FC000DC00002010B540F225511E4800F09EF8CC
:100FD00028B31C4800F056F9C4B22046FFF798FB2E
:100FE0001948008800F40040C8B91748008800F488
:100FF000804060B10A2C03D000201349088020E013
:101000001148008840F400400F49088019E00D2C79
:1010100006D10D48008840F480400B49088010E05C
:1010200009480088C0F30D0008490C5406480088A0
:10103000401C0549088008460088C72801DD0020BB
:10104000088010BD0044004034000020DC00002077
:1010500010B540F22551234800F058F800283FD041
:10106000204800F00FF9204908700846007800F089
:10107000C5FA1E48008800F4004088BB1B48008861
:1010800000F4804070B1184800780A2803D000208E
:101090001649088024E01548008840F400401349B0
:1010A00008801DE0104800780D2806D10F48008800
:1010B00040F480400D49088012E00B4800780B494D
:1010C0000988C1F30D010A4A505408480088401CA1
:1010D0000649088008460088C72801DD00200880EE
:1010E00010BD000000480040200000203400002017
:1010F000DC00002021B1828942F40052828104E0A8
:1011000082894DF6FF731A408281704770B502469E
:10111000002400230025002040F66A16B14200D1C9
:1011200000BFC1F3421501F01F03012606FA03F3C5
:10113000012D02D19689334006E0022D02D1168A94
:10114000334001E0968A33400C12012606FA04F47B
:101150001688344013B10CB1012000E0002070BDAE
:10116000F0B50346002400260025002040F66A174B
:10117000B94200D100BF1846C1F3421401F01F0666
:10118000012707FA06F5012C01D10C3004E0022CEE
:1011900001D1103000E014301AB107682F43076006
:1011A00002E00768AF430760F0BD00002DE9F0479B
:1011B00086B005460E460024A24600BFA146002781
:1011C000B08900B100BF2F462C8A4CF6FF70044056
:1011D000F08804432C82AC894EF6F3100440B088AA
:1011E00031890843718908430443AC81AC8A4FF6C6
:1011F000FF400440B0890443AC8201A8FFF7B4FB70
:101200001F48874202D1DDF810A001E0DDF80CA0F4
:10121000A88900F4004040B10AEBCA0000EB0A10B4
:1012200031684900B0FBF1F807E00AEBCA0000EBB7
:101230000A1031688900B0FBF1F86420B8FBF0F0C7
:1012400004012009642101FB1089A88900F40040F1
:1012500040B1322000EBC900B0FBF1F000F0070014
:10126000044308E0322000EB09106421B0FBF1F0E8
:1012700000F00F0004432C8106B0BDE8F0870000A9
:101280000038014001468888C0F30800704700BF5D
:10129000FEE700000FB4054B10B503A9044A0298FD
:1012A00000F018F810BC5DF814FB0000CD15000824
:1012B0003000002002E008C8121F08C1002AFAD13D
:1012C00070477047002001E001C1121F002AFBD1C6
:1012D000704700002DE9FF4F8BB09A460F46054638
:1012E000002606E025280BD052460D9990476D1C2C
:1012F000761C28780028F5D10FB03046BDE8F08F75
:101300000024A0460122604900E0044315F8013F93
:10131000203B02FA03F00842F7D128782E2817D193
:1013200015F8010F44F004042A280ED06FF02F02A4
:101330002878A0F1300109290AD808EB880102EBCE
:10134000410100EB01086D1CF2E757F8048B6D1C9E
:10135000287869283ED006DC0028CDD063280BD041
:10136000642804D136E0732810D075284BD052463B
:101370000D999047761C85E017F8040B8DF8000056
:1013800000208DF80100E946012003E057F8049B96
:101390004FF0FF3061074FF0000401D40AE0641CF5
:1013A00044450DDA8442FADB19F804100029F6D11D
:1013B00006E0641C8442FCDB19F804100029F8D113
:1013C000264404E019F8010B52460D999047641E1B
:1013D000F8D257E001CF4FF00A0B002802DA404262
:1013E0002D2102E0210504D52B218DF824100121A7
:1013F00003E0E10705D02021F7E70DF1200908916E
:101400000CE00021F9E701CF4FF00A0BF9E759464C
:10141000FEF7A6FF01F1300209F8012D0028F6D1F0
:10142000ADEB090000F1200B600701D44FF001087B
:10143000D84502DDA8EB0B0000E000208046002428
:1014400006E009A85246005D0D999047641C761C81
:1014500008988442F5DB04E0302052460D9990470D
:10146000761CB8F10001A8F10108F5DC05E019F8D7
:10147000010B52460D999047761CBBF10001ABF170
:10148000010BF4DC6D1C34E70928010010B5284875
:101490004078012804D100210846FFF7CFFA46E042
:1014A0002348807801280DD1224800680A3021495C
:1014B0000860084601680020FFF7C0FA00201C49B8
:1014C000887034E01A48C07801280DD119480068A6
:1014D0000A3818490860084601680020FFF7AEFA8C
:1014E00000201349C87022E01148007901280DD16D
:1014F000114800680A381049086000210E48006849
:10150000FFF79CFA00200A49087110E0084840796A
:1015100001280CD1084800680A30074908600021FA
:1015200005480068FFF78AFA00200149487110BD9C
:1015300010000020180000201C00002010B56FF0E3
:101540000400FFF713FB0A4800680A49B0FBF1F0FA
:10155000094908700846007800EB4001C1EBC01053
:101560004FF6FF7101EAC0000449088010BD000079
:101570004C00002000127A002C0000202E000020D9
:101580000146114A12884A434FF0E0235A61002273
:101590009A611A46126942F001021A6100BF4FF0C7
:1015A000E022106900F001021AB100F48032002A32
:1015B000F5D04FF0E022126922F001024FF0E02353
:1015C0001A6100229A6170472E00002000BF054A70
:1015D000128802F04002002AF9D0C2B2014B1B1D52
:1015E0001A80704700380140FEF71AFFFFF7EEF847
:1015F00003E04FF4FA60FFF7C3FFFAE770B5044663
:101600003948007868B9A52C0BD1012036490870FB
:10161000364801780078401C344A107034484454ED
:1016200060E03148007801280FD130480178007817
:10163000401C2E4A10702E4844541046007806284C
:1016400050DB0220284908704CE027480078022827
:1016500019D1032024490870244801780078401CDF
:10166000224A107022484454012504E02048405D7D
:101670000644681CC5B21D480078801EA842F5DAF1
:101680001C490E702EE018480078032825D1184810
:1016900080791849097888421FD15A2C0ED1002030
:1016A000114908701148027811491348FEF788FD66
:1016B00000200E490870FFF7E9FE13E00C48C079DE
:1016C0005A280FD0094801780948FEF792FD0020FA
:1016D000054908700549087004E0002002490870B7
:1016E0000249087070BD0000210000202200002087
:1016F00008000020230000201000002010B586B054
:101700000446012144F20400FFF71EF94FF4007073
:10171000ADF8140003208DF8160018208DF817007E
:1017200005A91D48FEF7A7FE4FF48060ADF8140030
:1017300004208DF8170005A91748FEF79CFE252008
:101740008DF8000000208DF8010003208DF80200C4
:1017500001208DF803006846FEF798FF01940020F1
:10176000ADF80800ADF80A00ADF80C00ADF81000B7
:101770000C20ADF80E0001A90848FFF717FD012263
:1017800040F225510548FFF7EBFC01210348FFF724
:10179000B1FC06B010BD0000000801400038014057
:1017A00010B586B0044601210420FFF7CDF80121D1
:1017B0004804FFF7B9F80420ADF8140003208DF8B1
:1017C000160018208DF8170005A91C48FEF753FED7
:1017D0000820ADF8140004208DF8170005A917485B
:1017E000FEF749FE26208DF8000000208DF801004C
:1017F00003208DF8020001208DF803006846FEF7F3
:1018000045FF01940020ADF80800ADF80A00ADF8DE
:101810000C00ADF810000C20ADF80E0001A908482E
:10182000FFF7C4FC012240F225510548FFF798FC60
:1018300001210348FFF75EFC06B010BD000801401F
:101840000044004010B586B0044601210820FFF78F
:101850007BF801218804FFF767F84FF48060ADF84A
:10186000140003208DF8160018208DF8170005A924
:101870001C48FEF700FE4FF40060ADF81400042091
:101880008DF8170005A91748FEF7F5FD27208DF8FC
:10189000000001208DF8010003208DF802000120D6
:1018A0008DF803006846FEF7F1FE01940020ADF8C4
:1018B0000800ADF80A00ADF80C00ADF810000C20DF
:1018C000ADF80E0001A90848FFF770FC012240F2B4
:1018D00025510548FFF744FC01210348FFF70AFCA6
:1018E00006B010BD000C01400048004010B51B4878
:1018F000006818B101201A4908602DE0002018493D
:10190000086018480068B0FA80F0C0F11F0404EBCA
:101910008400154951F8200008B1012000E00020A2
:1019200028B940F6F62211A116A0FFF7B3FC04EB8C
:1019300084010D4A02EB810041684968416000F171
:10194000080142688A4202D14168496841604168A1
:10195000C968104A116000BF10BD00009800002047
:101960008400002078000020A401002046726565F4
:1019700052544F535C7372635C7461736B732E6368
:10198000000000004572726F723A25732C25640DB9
:101990000A00000060000020B819000800000020C4
:1019A0009C000000B4120008541A00089C0000209B
:1019B000EC070000C4120008000000000000000056
:1019C0000000000000000000000000000000000017
:1019D0000000000000000000000000000000000007
:1019E00000000000000000000000000000000000F7
:1019F00000000102030401020304060708090204AF
:101A00000608000000A24A040000000000000000D8
:101A1000010203040607080900000000000000009E
:101A200000000000000000000000000000000000B6
:101A300000000000000000000000000000000000A6
:101A40000000000000000000000000000000000096
:041A50000000000092
:04000005080000ED02
:00000001FF
