:020000040800F2
:10000000D84400209D010008B103000871030008D6
:10001000AD03000851020008C308000800000000FA
:1000200000000000000000000000000005010008C2
:100030005502000800000000490100083D060008C4
:10004000B7010008B7010008B7010008B7010008B0
:10005000B7010008B7010008B7010008B7010008A0
:10006000B7010008B7010008B7010008B701000890
:10007000B7010008B7010008B7010008B701000880
:10008000B7010008B7010008B7010008B701000870
:10009000B7010008B7010008B7010008B701000860
:1000A000B7010008B7010008B7010008B701000850
:1000B000B7010008B7010008B7010008B701000840
:1000C000B7010008B7010008B7010008B701000830
:1000D000B7010008A1060008B7010008B701000831
:1000E000B7010008B7010008B7010008DFF810D019
:1000F00000F08EF8004800478D0B0008AFF3008039
:10010000D8440020224B19680868B0E8F00F80F34B
:100110000988BFF36F8F4FF0000080F311884EF015
:100120000D0E70470000000006480068006880F36C
:10013000088862B661B6BFF34F8FBFF36F8F00DFE1
:1001400000BF00BF08ED00E0EFF30980BFF36F8F41
:100150000F4B1A6820E9F00F106008B54FF05000FF
:1001600080F31188BFF34F8FBFF36F8F01F084FED0
:100170004FF0000080F31188BDE808401968086856
:10018000B0E8F00F80F30988BFF36F8F704700BFAE
:100190003C000020EFF305807047000006488047D0
:1001A00006480047FEE7FEE7FEE7FEE7FEE7FEE75C
:1001B000FEE7FEE7FEE7FEE741060008ED00000867
:1001C00040EA01039B0703D009E008C9121F08C0D9
:1001D000042AFAD203E011F8013B00F8013B521E59
:1001E000F9D2704730B50B46014600202022012489
:1001F00009E021FA02F59D4205D303FA02F5491BF5
:1002000004FA02F52844151EA2F10102F1DC30BD0A
:10021000064C074D06E0E06840F0010394E8070053
:1002200098471034AC42F6D3FFF764FFD42A000895
:10023000F42A000810B54FF4407000F0F3F800F015
:100240003FFC4FF4E13001F0A7FA00F093F810BD45
:1002500000BFFEE770472DE9F04102460025002669
:10026000002000230024002791F803C00CF00F05A4
:1002700091F803C00CF0100CBCF1000F03D091F802
:1002800002C04CEA050591F800C0BCF1000F31D066
:10029000146800202BE04FF0010C0CFA00F3B1F8C9
:1002A00000C00CEA03069E4220D183004FF00F0CE1
:1002B0000CFA03F7BC4305FA03FC4CEA040491F87A
:1002C00003C0BCF1280F06D14FF0010C0CFA00FC62
:1002D000C2F814C00AE091F803C0BCF1480F05D180
:1002E0004FF0010C0CFA00FCC2F810C0401C0828AA
:1002F000D1D31460B1F800C0BCF1FF0F34DD5468F5
:1003000000202EE000F1080C4FF0010808FA0CF371
:10031000B1F800C00CEA03069E4221D183004FF0E1
:100320000F0C0CFA03F7BC4305FA03FC4CEA040477
:1003300091F803C0BCF1280F05D100F1080C08FAB0
:100340000CF8C2F8148091F803C0BCF1480F07D133
:1003500000F1080C4FF0010808FA0CF8C2F8108000
:10036000401C0828CED35460BDE8F081016170477D
:1003700000BFFEE708B50121102000F05DF84FF442
:100380000050ADF8000010208DF8030003208DF818
:10039000020069460448FFF75EFF4FF4005102482F
:1003A000FFF7E4FF08BD00000010014000BFFEE7BA
:1003B0007047000070B5002100230F22C47804B3F9
:1003C000154C246804F4E064C4F5E064210AC1F12A
:1003D0000403CA40447804FA03F1847814402143AA
:1003E00009010E4C0678A155047804F01F0501247C
:1003F000AC4005786D11AD0005F1E025C5F8004170
:1004000009E0047804F01F050124AC40044D06788F
:10041000761145F8264070BD0CED00E000E400E0E8
:1004200080E100E002490143024A11607047000088
:100430000000FA050CED00E029B1064A926902437A
:10044000044B9A6104E0034A92698243014B9A612A
:10045000704700000010024030B500210022002447
:1004600000232D4D6D6805F00C0121B1042905D044
:10047000082923D105E0294D056022E0274D0560BC
:100480001FE0254D6D6805F47012234D6D6805F46D
:100490008034022505EB92421CB9214D554305607D
:1004A0000BE01D4D6D6805F400351DB11C4D554325
:1004B000056002E0194D5543056002E0174D0560E7
:1004C00000BF00BF144D6D6805F0F0010909154D1E
:1004D0006B5C0568DD4045600F4D6D6805F4E061BB
:1004E000090A104D6B5C4568DD4085600A4D6D68FA
:1004F00005F46051C90A0B4D6B5C4568DD40C56071
:10050000054D6D6805F44041890B074D6B5CC5686E
:10051000B5FBF3F5056130BD0010024000127A0012
:1005200000093D00120000202200002010B500F05C
:1005300001F810BD0CB50020019000903348006810
:1005400040F480303149086000BF3048006800F452
:10055000003000900198401C0190009818B9019853
:10056000B0F5A06FF1D12948006800F4003010B157
:100570000120009001E0002000900098012843D164
:100580002348006840F010002149086008460068D0
:1005900020F0030008600846006840F00200086090
:1005A0001A4840681949486008464068486008464B
:1005B000406840F4806048600846406820F47C1041
:1005C00048600846406840F4E81048600846006803
:1005D00040F08070086000BF0C48006800F00070B8
:1005E0000028F9D00948406820F003000749486016
:1005F0000846406840F00200486000BF0348406879
:1006000000F00C000828F9D10CBD000000100240D9
:1006100000200240042808D14FF0E021096941F090
:1006200004014FF0E022116107E04FF0E021096979
:1006300021F004014FF0E022116170477047000083
:1006400010B51348006840F00100114908600846E1
:100650004068104908400E494860084600680E4945
:1006600008400B4908600846006820F480200860B4
:100670000846406820F4FE0048604FF41F00886080
:10068000FFF754FF4FF000600449086010BD000000
:10069000001002400000FFF8FFFFF6FE08ED00E04A
:1006A00010B540F225511D4800F04AF810B31B4820
:1006B00000F002F9C4B21A48008800F40040C8B93A
:1006C0001748008800F4804060B10A2C03D0002055
:1006D0001349088020E01248008840F40040104987
:1006E000088019E00D2C06D10D48008840F48040A8
:1006F0000B49088010E00A480088C0F30D00094942
:100700000C5407480088401C0549088008460088AA
:10071000C72801DD0020088010BD0000003801401E
:1007200010000020B000002021B1828942F4005264
:10073000828104E082894DF6FF731A4082817047FE
:1007400070B50246002400230025002040F66A16FA
:10075000B14200D100BFC1F3421501F01F030126D1
:1007600006FA03F3012D02D19689334006E0022DEB
:1007700002D1168A334001E0968A33400C120126DA
:1007800006FA04F41688344013B10CB1012000E0DD
:10079000002070BDF0B5034600240026002500208F
:1007A00040F66A17B94200D100BF1846C1F342149F
:1007B00001F01F06012707FA06F5012C01D10C30C4
:1007C00004E0022C01D1103000E014301AB10768A7
:1007D0002F43076002E00768AF430760F0BD0000E9
:1007E0002DE9F04786B005460E460024A24600BF1C
:1007F000A1460027B08900B100BF2F462C8A4CF6D5
:10080000FF700440F08804432C82AC894EF6F3104C
:100810000440B08831890843718908430443AC819E
:10082000AC8A4FF6FF400440B0890443AC8201A873
:10083000FFF712FE1F48874202D1DDF810A001E049
:10084000DDF80CA0A88900F4004040B10AEBCA0012
:1008500000EB0A1031684900B0FBF1F807E00AEB41
:10086000CA0000EB0A1031688900B0FBF1F864207F
:10087000B8FBF0F004012009642101FB1089A8896C
:1008800000F4004040B1322000EBC900B0FBF1F0B1
:1008900000F00700044308E0322000EB0910642157
:1008A000B0FBF1F000F00F0004432C8106B0BDE86E
:1008B000F08700000038014001468888C0F3080036
:1008C000704700BFFEE700000FB4054B10B503A949
:1008D000044A029800F018F810BC5DF814FB000000
:1008E000510B00080C00002002E008C8121F08C1CC
:1008F000002AFAD170477047002001E001C1121FA1
:10090000002AFBD1704700002DE9FF4F8BB09A46BB
:100910000F460546002606E025280BD052460D99C5
:1009200090476D1C761C28780028F5D10FB0304612
:10093000BDE8F08F0024A0460122604900E0044396
:1009400015F8013F203B02FA03F00842F7D128785E
:100950002E2817D115F8010F44F004042A280ED0D0
:100960006FF02F022878A0F1300109290AD808EB8E
:10097000880102EB410100EB01086D1CF2E757F81A
:10098000048B6D1C287869283ED006DC0028CDD069
:1009900063280BD0642804D136E0732810D0752862
:1009A0004BD052460D999047761C85E017F8040B02
:1009B0008DF8000000208DF80100E946012003E0D9
:1009C00057F8049B4FF0FF3061074FF0000401D44B
:1009D0000AE0641C44450DDA8442FADB19F804107D
:1009E0000029F6D106E0641C8442FCDB19F80410EF
:1009F0000029F8D1264404E019F8010B52460D995C
:100A00009047641EF8D257E001CF4FF00A0B002840
:100A100002DA40422D2102E0210504D52B218DF878
:100A20002410012103E0E10705D02021F7E70DF1B3
:100A3000200908910CE00021F9E701CF4FF00A0BE3
:100A4000F9E75946FFF7CEFB01F1300209F8012D15
:100A50000028F6D1ADEB090000F1200B600701D4AE
:100A60004FF00108D84502DDA8EB0B0000E00020A4
:100A70008046002406E009A85246005D0D99904783
:100A8000641C761C08988442F5DB04E03020524652
:100A90000D999047761CB8F10001A8F10108F5DC2A
:100AA00005E019F8010B52460D999047761CBBF1F1
:100AB0000001ABF1010BF4DC6D1C34E709280100E7
:100AC00010B56FF00400FFF7A5FD0A4800680A4959
:100AD000B0FBF1F0094908700846007800EB4001CE
:100AE000C1EBC0104FF6FF7101EAC0000449088055
:100AF00010BD00002800002000127A00080000202D
:100B00000A0000200146114A12884A434FF0E023B0
:100B10005A6100229A611A46126942F001021A6172
:100B200000BF4FF0E022106900F001021AB100F49A
:100B30008032002AF5D04FF0E022126922F0010243
:100B40004FF0E0231A6100229A6170470A000020EA
:100B500000BF054A128802F04002002AF9D0C2B252
:100B6000014B1B1D1A8070470038014009E0054801
:100B70000068C0430449C1F8B4014FF4FA70FFF7AC
:100B8000C1FFF4E7B4012242000022421CB5012457
:100B9000FFF750FB0A48012100239622CDE90010FF
:100BA00008A10B4801F024FD0446012C02D101F0FC
:100BB00003F902E04FF0FF301CBD00BFFEE700006C
:100BC0000000002073746172745F7461736B0000C5
:100BD000551700082DE9F04105460E461C480768E8
:100BE0001C480068001D00F027FE50B91948006835
:100BF00090F82C1001208840174909688143164855
:100C00000160681C38B936B112480168091D1348E3
:100C100000F050FE1AE07C190E4800684460BC42A7
:100C200007D20C480168091D0D48006800F028FE35
:100C30000CE008480168091D0A48006800F020FE21
:100C400009480068844201D207480460BDE8F08189
:100C5000500000203C000020540000209804002098
:100C600044000020400000206C00002010B5044625
:100C700000F02CFE23480068401C224908602248EE
:100C8000006840B9204804600846006801280DD17A
:100C900000F0DAF90AE01D48006838B91A4800681F
:100CA000C06AE16A884201D81748046018480068A1
:100CB000401C1749086094F82C1001208840154901
:100CC0000968084313490860E16A01EB8101124A8F
:100CD00002EB8100211D00F0EDFD00F037FE0B4816
:100CE000006868B108480068C06AE16A884207D2B3
:100CF0004FF0805009490860BFF34F8FBFF36F8FEB
:100D000010BD00004C0000203C00002058000020D6
:100D10006800002054000020C801002004ED00E01D
:100D200010B500F0D3FD10480068D0B90F4800F0AE
:100D300097FD0F4800F094FD0C480E4908600C48E0
:100D40000D490860002210210A2001F03BF90649F4
:100D500008600846006820B108A10348006800F058
:100D6000DDFE00F0F3FD10BD80000020AC0400208B
:100D7000C0040020780000207C000020546D7251D7
:100D80000000000070B523E001F06EF81348006821
:100D900008B9012000E00020054601F07DFDBDB945
:100DA00000F094FD0D48C068C468201D00F044FDAB
:100DB0000B480068401E0A4908600A480068401E47
:100DC0000849086000F0C2FD204600F057F800BF57
:100DD000044800680028D7D170BD000084040020BA
:100DE0004C0000204800002070B504460D46206CE1
:100DF00070B1216CE0680844E0606168E068884296
:100E000001D32068E0602846226CE168FFF7D8F93A
:100E100070BD2DE9F04104460F4615464FF000081D
:100E2000A66B206C28B37DB93946226CA068FFF709
:100E3000C7F9216CA0680844A060D4E90110884279
:100E400017D32068A06014E03946226CE068FFF7F1
:100E5000B7F9216CE068401AE0602168E0688842D8
:100E600003D2216C6068401AE060022D01D106B106
:100E7000761E701CA0634046BDE8F08110B50446A4
:100E8000206B00F097FD204600F094FD10BD00009F
:100E90000146084A126812680AB9012200E00022DD
:100EA0000A600A6822B9034A1268D268106800E032
:100EB000002070477800002030B54FF47053174879
:100EC00000F007042CB1C01D20F00700134C041BD8
:100ED0001B1B0246124C22600024114D6C60D0187E
:100EE000083820F007000F4C206000240D4D2D68BD
:100EF0006C600C4D2D682C601146441A4C60094CF6
:100F000024680C60084D4C682C60084D4C682C60BF
:100F10004FF00044064D2C6030BD0000D40400208A
:100F200098000020A0000020A8000020A4000020BD
:100F3000AC00002000BFFFF725FF0648006801282D
:100F4000F9D94FF0805004490860BFF34F8FBFF3C9
:100F50006F8FF0E7C801002004ED00E02DE9F041BB
:100F600006460D4617469846069C0DB9246000E0DB
:100F70002760E66325640121204601F037F9BDE8CA
:100F8000F08100002DE9FF5F81460E469246DDE9C3
:100F90000E7B109CAAF10100216B01EB800828F068
:100FA000070808F0070008B9012000E0002028B970
:100FB00040F22B321AA120A0FFF786FC002507E0A3
:100FC000715D04F134004155705D00B902E06D1CA3
:100FD000102DF5D300BF002143200155202F00D351
:100FE0001F27E762201D00F048FC04F1180000F004
:100FF00044FC2461C7F12000A061646200206064A9
:1010000084F8480049464046039A00F091FB20606E
:10101000BBF1000F01D0CBF80040BDE8FF9F0000FE
:101020004672656552544F535C7372635C746173AE
:101030006B732E63000000004572726F723A257365
:101040002C25640D0A00000010B5002407E004EB15
:1010500084010F4A02EB810000F002FC641C202C8A
:10106000F5D30C4800F0FCFB0B4800F0F9FB0B48F3
:1010700000F0F6FB0A4800F0F3FB0A4800F0F0FB32
:1010800004480949086004480849086010BD000088
:10109000C8010020480400205C04002070040020E7
:1010A0008404002098040020400000204400002018
:1010B00010B50146164800E0006803688B42FBD378
:1010C0000246436813448B4204D143684C6823446E
:1010D000436001460A464B6813440468A34211D199
:1010E0000C4C03682468A34208D04B680468646809
:1010F00023444B6003681B680B6005E0054B1B68CD
:101100000B6001E003680B60884200D0016010BDF5
:1011100098000020A00000202DE9F04104460D4673
:1011200016461F464FF0000865602461B5420CD892
:10113000F01BA169884202D34FF0010811E0211D84
:101140000948006800F09CFB0BE0BE4204D2BD429F
:1011500002D34FF0010804E0211D0448006800F0AC
:101160008FFB4046BDE8F0817C0000207800002025
:1011700070B5054600F0AAFBA86B08B9012400E091
:10118000002400F0E3FB204670BD70B5054600F07A
:101190009DFBA86BE96B884201D1012400E000248B
:1011A00000F0D4FB204670BDF8B505460F46134845
:1011B0000068C068C468201D00F03EFBE06901289B
:1011C00018D1A06941192B463A462046FFF7A4FFE3
:1011D00080B1002003462A4601460090204601F0D7
:1011E00027FC06462EB94FF4027205A10AA0FFF7AC
:1011F0006BFB00BF2046616A8847F8BD780000207D
:101200004672656552544F535C7372635C74696DCA
:101210006572732E630000004572726F723A257317
:101220002C25640D0A000000F0B587B070E003982B
:1012300000280CDA04AE2EB940F2E7223AA140A011
:10124000FFF742FBD6E90020B168904700BF039842
:1012500000285DDB059C606908B9012000E00020E2
:1012600010B9201D00F0E8FA02A800F0C7F8054602
:1012700003980A284AD2DFE800F00905072C2E451A
:1012800006082D2F00BF00BF00BF00BF0498A26951
:10129000811803462A462046FFF73EFFC0B120468C
:1012A000616A8847E069012812D100200090049803
:1012B000A169421800231946204601F0B9FB0746F0
:1012C0002FB940F2213218A11DA0FFF7FDFA00BF8F
:1012D0001DE000BF1BE000BF0498A061A06908B139
:1012E000012000E0002028B94FF44E720EA114A096
:1012F000FFF7EAFAA06941192B462A462046FFF774
:101300000BFF04E0204600F055FB00E000BF00BFEB
:1013100000231A4603A90E48006800F08FFE00283B
:1013200085D107B0F0BD00004672656552544F5339
:101330005C7372635C74696D6572732E6300000088
:101340004572726F723A25732C25640D0A000000F5
:1013500080000020F8B505460C4600F085FD684683
:1013600000F04CF80646009820BB44B9B54206D8B8
:1013700001F092FA31462846FFF716FF1CE03CB117
:101380000E480068006808B9012000E0002004460B
:10139000A91B22460A48006800F0D6FB01F07CFA3F
:1013A00050B94FF0805007490860BFF34F8FBFF32B
:1013B0006F8F01E001F070FAF8BD00007C000020A2
:1013C0008000002004ED00E00A490968096809B9B5
:1013D000012100E0002121B14FF0FF31064A1160E8
:1013E00006E004490968C968C868034A4168116091
:1013F00070470000400000206C00002070B50446DB
:1014000001F036F9054607480068854204D200F02D
:101410000BF80120206001E00020206001480560F9
:10142000284670BD880000202DE9F8432DE02148B2
:101430000068C06805681F480068C068C468201D4F
:1014400000F0FAF92046616A8847E06901281CD15A
:10145000A0694619AE4207D966602461211D15486E
:10146000006800F00DFA10E0002003462A4601460D
:101470000090204601F0DCFA07462FB940F2923284
:101480000DA113A0FFF720FA00BF0A48006800680A
:1014900008B9012000E000200028C8D00548D0F895
:1014A00000800F480068034908600D48C0F80080BC
:1014B000BDE8F883780000204672656552544F53AA
:1014C0005C7372635C74696D6572732E63000000F7
:1014D0004572726F723A25732C25640D0A00000064
:1014E0007C0000200B480068401C08B9012000E087
:1014F000002020B9F42208A110A0FFF7E5F900BFF1
:10150000502080F31188BFF34F8FBFF36F8F00BF60
:1015100000BFFEE78C0000204672656552544F53B1
:101520005C706F72745C525644535C41524D5F4321
:101530004D335C706F72742E630000004572726FE1
:10154000723A25732C25640D0A00000008B500BF0F
:101550006846FFF79DFC044620460099FFF7FAFE17
:10156000FFF762FEF4E770B5044600F0AFF994F9B6
:10157000455010E0606A08B9012000E0002038B949
:1015800004F1240001F02CF918B100F08BFB00E00D
:1015900003E0681E45B2002DECDC00BFFF2084F89C
:1015A000450000F0D3F900F091F994F9445010E0AF
:1015B000206908B9012000E0002048B904F11000BA
:1015C00001F00EF908B100F06DFB681E45B200E0B5
:1015D00001E0002DECDC00BFFF2084F8440000F0A7
:1015E000B5F970BD2DE9F04104464FF0000800F058
:1015F0003BFC3E48006808B9FFF75EFC3C480068C9
:10160000204000285FD1A4B1083404F0070080B165
:1016100004F00700C0F10800044404F0070008B912
:10162000012000E0002020B9BF2232A139A0FFF73D
:101630004BF9002C47D03B480068844243D83A4ECF
:101640003046056801E02E462D686868A04202D247
:1016500028680028F7D125480068854233D03068D3
:1016600000F10808286830606868001B102813D94A
:101670002F1907F0070008B9012000E0002020B969
:10168000EC221CA123A0FFF71FF96868001B7860FB
:101690006C603846FFF70CFD224968680968081A33
:1016A000204908600846006820490968884203D23A
:1016B0001C4800681D4908600D49686809680843AE
:1016C00068600020286001F0E7F808F0070008B91A
:1016D000012000E0002028B94FF4967205A10DA06A
:1016E000FFF7F2F84046BDE8F0810000A0000020BE
:1016F000AC0000204672656552544F535C706F72A7
:10170000745C4D656D4D616E675C686561705F34DA
:101710002E6300004572726F723A25732C25640D9A
:101720000A000000A400002098000020A80000206B
:10173000001F4FF080730360001F21F0010303605E
:10174000001F034B0360143802602038704700000C
:10175000E51400081CB5044600F0B8F8084802215A
:1017600000235022CDE9001006A1094800F040FFF7
:101770000848006800F00EFA00F0E8F81CBD000010
:10178000040000206C6564305F7461736B000000BE
:101790006D0B00080000002010B586B00446012142
:1017A00044F20400FEF748FE4FF40070ADF8140058
:1017B00003208DF8160018208DF8170005A91C4885
:1017C000FEF749FD4FF48060ADF8140004208DF859
:1017D000170005A91648FEF73EFD25208DF80000EC
:1017E00003208DF801008DF8020001208DF8030020
:1017F0006846FEF7DFFD01940020ADF80800ADF863
:101800000A00ADF80C00ADF810000C20ADF80E0089
:1018100001A90848FEF7E4FF012240F225510548DE
:10182000FEF7B8FF01210348FEF77EFF06B010BDAA
:10183000000801400038014001460A69D1E9013041
:101840009860D1E9010358605068884201D18868E6
:101850005060002008611068401E106010687047DA
:1018600000F1080141604FF0FF31816000F1080193
:10187000C160016100210160704700210161704772
:1018800010B502460B685C1C0CB9106907E002F148
:10189000080000E04068446824689C42FAD9446823
:1018A0004C604C68A160886041600A611468641CE7
:1018B000146010BD42684A6093688B6093685960F9
:1018C0009160086103685B1C0360704710B500BF3E
:1018D000502080F31188BFF34F8FBFF36F8F00BF8D
:1018E0000B480068401C0A49086008460068012847
:1018F0000DD108480068C0B208B9012000E00020FE
:1019000028B94FF4BD7204A10CA0FEF7DDFF10BD95
:101910008C00002004ED00E04672656552544F5380
:101920005C706F72745C525644535C41524D5F431D
:101930004D335C706F72742E630000004572726FDD
:10194000723A25732C25640D0A00000010B50B486F
:10195000006828B940F2811209A112A0FEF7B4FF75
:1019600006480068401E054908600846006820B91E
:10197000002080F3118800BF00BF10BD8C00002044
:101980004672656552544F535C706F72745C525668
:1019900044535C41524D5F434D335C706F72742E03
:1019A000630000004572726F723A25732C25640D36
:1019B0000A00000070B506463546002E35D0083DB9
:1019C0002C461A4960680968084008B1012000E007
:1019D000002028B94FF4A07215A11DA0FEF774FFD6
:1019E000206808B9012000E0002028B940F2411227
:1019F0000FA117A0FEF768FF0C496068096808404E
:101A000098B1206888B909496068096888436060AE
:101A100000F02AFA12496068096808441049086011
:101A20002046FFF745FB00F037FF70BDAC000020FB
:101A30004672656552544F535C706F72745C4D65AD
:101A40006D4D616E675C686561705F342E63000088
:101A50004572726F723A25732C25640D0A000000DE
:101A6000A4000020064800684FF47A71B0FBF1F042
:101A7000401E4FF0E02148610720086170470000D8
:101A80002800002070B5FEF785FB0546102D11D308
:101A900005F1E02090F8F04310480078844201DB23
:101AA000012000E0002028B94FF42A720CA115A0F3
:101AB000FEF70AFF1748006800F4E060164909685D
:101AC000884201D8012000E0002028B94FF42E728E
:101AD00003A10CA0FEF7F8FE70BD000090000020EE
:101AE0004672656552544F535C706F72745C525607
:101AF00044535C41524D5F434D335C706F72742EA2
:101B0000630000004572726F723A25732C25640DD4
:101B10000A0000000CED00E09400002002460020C6
:101B20000BE0084B53F8303033B9064B43F8301014
:101B300003EBC0035A6002E0401C0A28F1D300BF47
:101B400070470000780100202DE9F04105460E465F
:101B500017462C46FFF7BAFE94F94400401C10B912
:101B6000002084F8440094F94500401C10B900207E
:101B700084F84500FFF7EAFEA06B28B93A463146E3
:101B800004F1240000F0C0F82046FFF7ECFCBDE8AB
:101B9000F081000070B50546FFF798FE15B92D4895
:101BA000006800E028460446201DFFF745FE78B98E
:101BB000E06A00EB8000284951F8200040B994F811
:101BC0002C10012088402549096881432348016081
:101BD000A06A18B104F11800FFF72EFE2048006833
:101BE000401C1F4908601B480068844209D1211D20
:101BF0001C48FFF75FFE1C480068401C1A4908603B
:101C000009E01A480068401E184908602046FFF79E
:101C100035F9FFF7D9FBFFF799FE15480068C0B109
:101C20000C480068844214D11248006808B90120A9
:101C300000E0002028B940F265420FA114A0FEF791
:101C400043FE4FF0805016490860BFF34F8FBFF33B
:101C50006F8F70BD3C000020C801002054000020A0
:101C60006800002084040020480000204C00002070
:101C700058000020740000204672656552544F538E
:101C80005C7372635C7461736B732E63000000009D
:101C90004572726F723A25732C25640D0A0000009C
:101CA00004ED00E001200149086070476000002059
:101CB00070B504460D462CB940F6063207A10DA0BA
:101CC000FEF702FE0F48016818312046FFF7D8FDE5
:101CD00001212846FEF77EFF70BD00004672656553
:101CE00052544F535C7372635C7461736B732E63F5
:101CF000000000004572726F723A25732C25640D46
:101D00000A0000003C00002070B505460E4614464F
:101D10002DB940F6313209A10EA0FEF7D5FD1148CC
:101D2000016818312846FFF7C5FD0CB14FF0FF36AA
:101D300021463046FEF74EFF70BD000046726565D5
:101D400052544F535C7372635C7461736B732E6394
:101D5000000000004572726F723A25732C25640DE5
:101D60000A0000003C00002010B504462CB940F6E3
:101D7000C13205A10AA0FEF7A7FD0D48006820604A
:101D80000C480068606010BD4672656552544F5340
:101D90005C7372635C7461736B732E63000000008C
:101DA0004572726F723A25732C25640D0A0000008B
:101DB00064000020500000201CB51A4800210B468A
:101DC0008022CDE9001018A1194800F011FC04464A
:101DD000012C02D100F0F2FD0446012C15D100BF08
:101DE000502080F31188BFF34F8FBFF36F8F00BF78
:101DF0004FF0FF300F49086001200F4908600020B4
:101E00000E49086000F08EF80BE0601C08B101205C
:101E100000E0002028B940F2847209A10EA0FEF76C
:101E200053FD1CBD7000002049444C4500000000DB
:101E3000350F00086C0000205800002050000020E2
:101E40004672656552544F535C7372635C74617380
:101E50006B732E63000000004572726F723A257337
:101E60002C25640D0A00000002480068401C01494E
:101E7000086070477400002010B51B48006818B156
:101E800001201A4908602DE0002018490860184810
:101E90000068B0FA80F0C0F11F0404EB840015491B
:101EA00051F8200008B1012000E0002028B940F6D8
:101EB000F62211A116A0FEF707FD04EB84010D4ADE
:101EC00002EB810041684968416000F10801426805
:101ED0008A4202D14168496841604168C968104A34
:101EE000116000BF10BD00007400002060000020E1
:101EF00054000020C80100204672656552544F53BB
:101F00005C7372635C7461736B732E63000000001A
:101F10004572726F723A25732C25640D0A00000019
:101F20003C0000201CB52248014609780191FF21A0
:101F3000024611700146097800919DF8001001F0E9
:101F400050011C4A117007211B4A116009E01A490F
:101F50000968491E184A11609DF800104906090ECB
:101F600000919DF8001001F080018029EFD0124906
:101F700009680902104A11601146098801F4E061FC
:101F800011600B4A019911700C48006840F4700010
:101F90000A4908600846006840F070400860FFF792
:101FA00061FD002006490860FEF7BEF800201CBD58
:101FB00000E400E0900000209400002020ED00E00C
:101FC0008C0000202DE9F84305460E4690460DB1E1
:101FD000012000E0002028B94FF4C4720DA113A025
:101FE000FEF772FC0EB9002701E005FB06F707F1CA
:101FF0004800FFF7F7FA044644B104F148094346A4
:102000004A46314628460094FEF7A8FF2046BDE820
:10201000F88300004672656552544F535C737263D7
:102020005C71756575652E63000000004572726F06
:10203000723A25732C25640D0A0000002DE9FF4734
:1020400082B005460E461F464FF0000A2C462CB9BA
:1020500040F2DC425AA160A0FEF736FC0EB9206CBB
:1020600008B9012000E0002028B940F2DD4254A167
:1020700059A0FEF729FC00F0EBFA08B9049808B95A
:10208000012000E0002028B94FF49C624CA152A02E
:10209000FEF71AFC00BFFFF719FCD4F83890B9F12D
:1020A000000F38D0D4F80C8031462046FEF79CFE55
:1020B000B7B9A9F10100A063206908B9012000E0C7
:1020C000002010BB04F1100000F08AFBE8B14FF0D3
:1020D000805045490860BFF34F8FBFF36F8F14E006
:1020E000C4F80C80606A08B9012000E0002060B9E3
:1020F00004F1240000F074FB38B14FF080503A49ED
:102100000860BFF34F8FBFF36F8FFFF71FFC0120F5
:1021100006B0BDE8F087049818B9FFF717FC002057
:10212000F6E7BAF1000F04D16846FFF71DFE4FF045
:10213000010AFFF70BFCFFF797FEFFF7C7FB94F9C7
:102140004400401C10B9002084F8440094F9450074
:10215000401C10B9002084F84500FFF7F7FB04A9E4
:10216000684600F0F3F9F0B92046FFF701F8A0B196
:1021700004F124000499FFF79BFD2046FFF7F3F9D3
:1021800000F08AFB002886D14FF080501649086085
:10219000BFF34F8FBFF36F8F7DE72046FFF7E3F963
:1021A00000F07AFB77E72046FFF7DDF900F074FBDB
:1021B0002046FEF7DDFF0028EED00020A8E7000053
:1021C0004672656552544F535C7372635C717565FA
:1021D00075652E63000000004572726F723A2573B8
:1021E0002C25640D0A00000004ED00E070B50546E2
:1021F0000E462C462CB940F21B121EA123A0FEF75E
:1022000063FBFFF763FBD4E90F12206801FB0200B8
:1022100060600020A0632068A060E06B401E226C1C
:10222000216800FB0210E060FF2084F8440084F87D
:1022300045009EB9206908B9012000E00020A8B936
:1022400004F1100000F0CCFA80B14FF08050134937
:102250000860BFF34F8FBFF36F8F07E004F11000EA
:10226000FFF7FEFA04F12400FFF7FAFAFFF76EFB1E
:10227000012070BD4672656552544F535C737263A2
:102280005C71756575652E63000000004572726FA4
:10229000723A25732C25640D0A00000004ED00E05D
:1022A0002DE9FF4383B0064688461D464FF00009DE
:1022B00034462CB940F2D92258A15EA0FEF704FBA7
:1022C000B8F1000F01D1206C08B9012000E0002016
:1022D00028B940F2DA2251A156A0FEF7F5FA022DF4
:1022E00002D1E06B012801D1012000E0002028B9D3
:1022F00040F2DB2249A14FA0FEF7E6FA00F0A8F970
:1023000008B9059808B9012000E0002028B940F27A
:10231000DE2242A147A0FEF7D7FA00BFFFF7D6FAA8
:10232000A06BE16B884201D3022D28D12A46414699
:102330002046FEF76EFD0746606A08B9012000E0FE
:10234000002068B904F1240000F04AFA88B14FF087
:1023500080503C490860BFF34F8FBFF36F8F08E098
:102360003FB14FF0805037490860BFF34F8FBFF344
:102370006F8FFFF7EBFA012007B0BDE8F0830598F7
:1023800018B9FFF7E3FA0020F6E7B9F1000F04D11E
:1023900001A8FFF7E9FC4FF00109FFF7D7FAFFF7B3
:1023A00063FDFFF793FA94F94400401C10B9002034
:1023B00084F8440094F94500401C10B9002084F8CA
:1023C0004500FFF7C3FA05A901A800F0BFF8F0B96E
:1023D0002046FEF7DAFEA0B104F110000599FFF7E0
:1023E00067FC2046FFF7BFF800F056FA002895D1A9
:1023F0004FF0805013490860BFF34F8FBFF36F8FCA
:102400008CE72046FFF7AFF800F046FA86E7204653
:10241000FFF7A9F800F040FA0020ADE746726565C5
:1024200052544F535C7372635C71756575652E63AE
:10243000000000004572726F723A25732C25640DFE
:102440000A00000004ED00E02DE9F05F07468A462F
:1024500090461E463C462CB940F29F3231A137A02F
:10246000FEF732FABAF1000F01D1206C08B9012051
:1024700000E0002028B94FF468722AA12FA0FEF7CF
:1024800023FA022E02D1E06B012801D1012000E0E5
:10249000002028B940F2A13222A128A0FEF714FAA8
:1024A000FFF7F0FA00BF5021EFF3118081F311889C
:1024B000BFF34F8FBFF36F8F00BF0546A06BE16B7B
:1024C000884201D3022E23D194F945B032465146B9
:1024D0002046FEF79EFC0BF1010088B9606A08B93E
:1024E000012000E0002080B904F1240000F078F918
:1024F00058B1B8F1000F08D00120C8F8000004E07E
:102500000BF1010040B284F845004FF0010901E0F1
:102510004FF0000900BF85F3118800BF4846BDE8B1
:10252000F09F00004672656552544F535C737263AE
:102530005C71756575652E63000000004572726FF1
:10254000723A25732C25640D0A0000002DE9F04134
:1025500004460D462CB940F6CB3219A11EA0FEF759
:10256000B3F92DB940F6CC3215A11BA0FEF7ACF99A
:10257000FFF7ACF91C4807682868401C08B900261A
:1025800019E01A4920680968884204D06068B84296
:1025900001D801260FE06068381A2968884209D2FC
:1025A00028686168791A401A28602046FFF7DCFB2A
:1025B000002600E00126FFF7C9F93046BDE8F081AA
:1025C0004672656552544F535C7372635C746173F9
:1025D0006B732E63000000004572726F723A2573B0
:1025E0002C25640D0A00000050000020640000202B
:1025F0002DE9FF4F85B0804689461746DDE912ABCD
:10260000B800FEF7EFFF064656B14C20FEF7EAFF92
:1026100004460CB1266304E03046FFF7CBF900E036
:1026200000247CB10020CDE900ABCDE902403A4660
:1026300049464046089BFEF7A5FC2046FEF716FBE0
:10264000012501E04FF0FF35284609B0BDE8F08FC5
:102650000549096809B9012005E00449096809B973
:10266000022000E000207047580000207400002085
:102670000149086870470000500000202DE9F04132
:102680004FF0000841480068002872D140480068B7
:10269000451C3F480560EDB93E480068006808B930
:1026A000012000E0002028B940F6D9123AA140A04C
:1026B000FEF70AF93748076841480068354908605D
:1026C0003F4807603F480068401C3E490860FEF7ED
:1026D0007BFE00BF3C48006885423CD300BF2D48CC
:1026E0000068006808B9012000E0002020B14FF028
:1026F000FF30354908602DE026480068C068C4688E
:102700006668B54202D23048066023E0201DFFF71C
:1027100093F8A06A18B104F11800FFF78DF894F847
:102720002C1001208840294909680843274908607E
:10273000E16A01EB8101264A02EB8100211DFFF7CE
:10274000B9F82449E06A0968C96A8842C7D34FF0DA
:102750000108C4E700BF1F480068C06A00EB8000A2
:102760001B4951F82000012801D94FF0010805E06C
:10277000FFE719480068401C1749086017480068BF
:1027800008B14FF001084046BDE8F0817400002018
:1027900050000020400000204672656552544F539F
:1027A0005C7372635C7461736B732E630000000072
:1027B0004572726F723A25732C25640D0A00000071
:1027C00044000020640000206C0000205400002021
:1027D000C80100203C0000205C00002060000020B8
:1027E00070B50646F068C4682CB940F661321AA18B
:1027F0001FA0FEF769F804F11800FFF71DF8204844
:102800000068A8B9201DFFF717F894F82C100120D4
:1028100088401C49096808431A490860E16A01EBCD
:102820008101194A02EB8100211DFFF743F804E002
:1028300004F118011548FFF73DF81549E06A0968E9
:10284000C96A884204D9012501201249086000E0C4
:102850000025284670BD00004672656552544F53EE
:102860005C7372635C7461736B732E6300000000B1
:102870004572726F723A25732C25640D0A000000B0
:102880007400002054000020C801002070040020C3
:102890003C0000206000002070B500240026344871
:1028A000006828B94FF4FD6232A138A0FEF70CF899
:1028B000FFF70CF82E480068401E2D4908600846B6
:1028C000006800284FD13548006800284BD024E02C
:1028D0003348C068C46804F11800FEF7ADFF201D3E
:1028E000FEF7AAFF94F82C10012088402D490968B2
:1028F00008432C490860E16A01EB81012A4A02EB96
:102900008100211DFEF7D6FF2849E06A0968C96ADF
:10291000884202D30120264908602148006808B98E
:10292000012000E000200028D2D00CB1FEF74CFDC1
:102930002048056865B100BFFFF7A0FE10B1012077
:102940001B4908606D1E002DF6D100201949086052
:102950001748006838B10126300717490860BFF3EF
:102960004F8FBFF36F8FFEF7F1FF304670BD000051
:10297000740000204672656552544F535C73726355
:102980005C7461736B732E63000000004572726F9C
:10299000723A25732C25640D0A0000004C000020BB
:1029A0007004002054000020C80100203C000020DA
:1029B000600000205C00002004ED00E01CB5002455
:1029C000FEF7AEF90B48006858B10B481F210023F1
:1029D0004FF48072CDE9001008A10A48FFF708FE05
:1029E00004462CB940F2331207A10DA0FDF76CFF8D
:1029F00020461CBD8000002084000020546D722001
:102A0000537663004D1500084672656552544F5366
:102A10005C7372635C74696D6572732E6300000091
:102A20004572726F723A25732C25640D0A000000FE
:102A30002DE9FF4704460D4616461F46DDF8308057
:102A40004FF000092CB94FF4D37217A11CA0FDF769
:102A50003BFF1F48006810B3009501960294062DB5
:102A600015DAFFF7F5FD022808D100234246694632
:102A700017480068FFF714FC814610E000231A464F
:102A8000694613480068FFF70BFC814607E0002306
:102A90003A4669460E480068FFF7D6FC814648462C
:102AA00004B0BDE8F08700004672656552544F538C
:102AB0005C7372635C74696D6572732E63000000F1
:102AC0004572726F723A25732C25640D0A0000005E
:102AD00080000020F42A000800000020B000000060
:102AE000E8080008A42B0008B000002028440000DB
:102AF000F8080008000000000000000000000000CE
:102B000000000000000000000000010203040102B8
:102B100003040607080902040608000000A24A048C
:102B2000000000000000000001020304060708097D
:102B30000000000000000000000000000000000095
:102B40000000000000000000000000000000000085
:102B50000000000000000000000000000000000075
:102B60000000000000000000000000000000000065
:102B70000000000000000000000000000000000055
:102B8000AAAAAAAA0000000000000000000000009D
:102B90000000000000000000000000000000000035
:042BA0000000000031
:04000005080000ED02
:00000001FF
